{
  "contractName": "CaptainCandy",
  "abi": [
    {
      "inputs": [
        {
          "internalType": "string",
          "name": "baseURI",
          "type": "string"
        }
      ],
      "stateMutability": "nonpayable",
      "type": "constructor"
    },
    {
      "anonymous": false,
      "inputs": [
        {
          "indexed": true,
          "internalType": "address",
          "name": "owner",
          "type": "address"
        },
        {
          "indexed": true,
          "internalType": "address",
          "name": "approved",
          "type": "address"
        },
        {
          "indexed": true,
          "internalType": "uint256",
          "name": "tokenId",
          "type": "uint256"
        }
      ],
      "name": "Approval",
      "type": "event"
    },
    {
      "anonymous": false,
      "inputs": [
        {
          "indexed": true,
          "internalType": "address",
          "name": "owner",
          "type": "address"
        },
        {
          "indexed": true,
          "internalType": "address",
          "name": "operator",
          "type": "address"
        },
        {
          "indexed": false,
          "internalType": "bool",
          "name": "approved",
          "type": "bool"
        }
      ],
      "name": "ApprovalForAll",
      "type": "event"
    },
    {
      "anonymous": false,
      "inputs": [
        {
          "indexed": false,
          "internalType": "address",
          "name": "to",
          "type": "address"
        },
        {
          "indexed": true,
          "internalType": "uint256",
          "name": "id",
          "type": "uint256"
        }
      ],
      "name": "OnePieceCreated",
      "type": "event"
    },
    {
      "anonymous": false,
      "inputs": [
        {
          "indexed": true,
          "internalType": "address",
          "name": "previousOwner",
          "type": "address"
        },
        {
          "indexed": true,
          "internalType": "address",
          "name": "newOwner",
          "type": "address"
        }
      ],
      "name": "OwnershipTransferred",
      "type": "event"
    },
    {
      "anonymous": false,
      "inputs": [
        {
          "indexed": false,
          "internalType": "address",
          "name": "account",
          "type": "address"
        }
      ],
      "name": "Paused",
      "type": "event"
    },
    {
      "anonymous": false,
      "inputs": [
        {
          "indexed": true,
          "internalType": "address",
          "name": "from",
          "type": "address"
        },
        {
          "indexed": true,
          "internalType": "address",
          "name": "to",
          "type": "address"
        },
        {
          "indexed": true,
          "internalType": "uint256",
          "name": "tokenId",
          "type": "uint256"
        }
      ],
      "name": "Transfer",
      "type": "event"
    },
    {
      "anonymous": false,
      "inputs": [
        {
          "indexed": false,
          "internalType": "address",
          "name": "account",
          "type": "address"
        }
      ],
      "name": "Unpaused",
      "type": "event"
    },
    {
      "inputs": [],
      "name": "SALE_OPEN",
      "outputs": [
        {
          "internalType": "bool",
          "name": "",
          "type": "bool"
        }
      ],
      "stateMutability": "view",
      "type": "function",
      "constant": true
    },
    {
      "inputs": [
        {
          "internalType": "address",
          "name": "",
          "type": "address"
        }
      ],
      "name": "_whitelist",
      "outputs": [
        {
          "internalType": "bool",
          "name": "",
          "type": "bool"
        }
      ],
      "stateMutability": "view",
      "type": "function",
      "constant": true
    },
    {
      "inputs": [
        {
          "internalType": "address",
          "name": "to",
          "type": "address"
        },
        {
          "internalType": "uint256",
          "name": "tokenId",
          "type": "uint256"
        }
      ],
      "name": "approve",
      "outputs": [],
      "stateMutability": "nonpayable",
      "type": "function"
    },
    {
      "inputs": [
        {
          "internalType": "address",
          "name": "owner",
          "type": "address"
        }
      ],
      "name": "balanceOf",
      "outputs": [
        {
          "internalType": "uint256",
          "name": "",
          "type": "uint256"
        }
      ],
      "stateMutability": "view",
      "type": "function",
      "constant": true
    },
    {
      "inputs": [
        {
          "internalType": "uint256",
          "name": "tokenId",
          "type": "uint256"
        }
      ],
      "name": "burn",
      "outputs": [],
      "stateMutability": "nonpayable",
      "type": "function"
    },
    {
      "inputs": [
        {
          "internalType": "uint256",
          "name": "tokenId",
          "type": "uint256"
        }
      ],
      "name": "getApproved",
      "outputs": [
        {
          "internalType": "address",
          "name": "",
          "type": "address"
        }
      ],
      "stateMutability": "view",
      "type": "function",
      "constant": true
    },
    {
      "inputs": [
        {
          "internalType": "address",
          "name": "owner",
          "type": "address"
        },
        {
          "internalType": "address",
          "name": "operator",
          "type": "address"
        }
      ],
      "name": "isApprovedForAll",
      "outputs": [
        {
          "internalType": "bool",
          "name": "",
          "type": "bool"
        }
      ],
      "stateMutability": "view",
      "type": "function",
      "constant": true
    },
    {
      "inputs": [],
      "name": "name",
      "outputs": [
        {
          "internalType": "string",
          "name": "",
          "type": "string"
        }
      ],
      "stateMutability": "view",
      "type": "function",
      "constant": true
    },
    {
      "inputs": [],
      "name": "owner",
      "outputs": [
        {
          "internalType": "address",
          "name": "",
          "type": "address"
        }
      ],
      "stateMutability": "view",
      "type": "function",
      "constant": true
    },
    {
      "inputs": [
        {
          "internalType": "uint256",
          "name": "tokenId",
          "type": "uint256"
        }
      ],
      "name": "ownerOf",
      "outputs": [
        {
          "internalType": "address",
          "name": "",
          "type": "address"
        }
      ],
      "stateMutability": "view",
      "type": "function",
      "constant": true
    },
    {
      "inputs": [],
      "name": "paused",
      "outputs": [
        {
          "internalType": "bool",
          "name": "",
          "type": "bool"
        }
      ],
      "stateMutability": "view",
      "type": "function",
      "constant": true
    },
    {
      "inputs": [],
      "name": "renounceOwnership",
      "outputs": [],
      "stateMutability": "nonpayable",
      "type": "function"
    },
    {
      "inputs": [
        {
          "internalType": "address",
          "name": "from",
          "type": "address"
        },
        {
          "internalType": "address",
          "name": "to",
          "type": "address"
        },
        {
          "internalType": "uint256",
          "name": "tokenId",
          "type": "uint256"
        }
      ],
      "name": "safeTransferFrom",
      "outputs": [],
      "stateMutability": "nonpayable",
      "type": "function"
    },
    {
      "inputs": [
        {
          "internalType": "address",
          "name": "from",
          "type": "address"
        },
        {
          "internalType": "address",
          "name": "to",
          "type": "address"
        },
        {
          "internalType": "uint256",
          "name": "tokenId",
          "type": "uint256"
        },
        {
          "internalType": "bytes",
          "name": "_data",
          "type": "bytes"
        }
      ],
      "name": "safeTransferFrom",
      "outputs": [],
      "stateMutability": "nonpayable",
      "type": "function"
    },
    {
      "inputs": [
        {
          "internalType": "address",
          "name": "operator",
          "type": "address"
        },
        {
          "internalType": "bool",
          "name": "approved",
          "type": "bool"
        }
      ],
      "name": "setApprovalForAll",
      "outputs": [],
      "stateMutability": "nonpayable",
      "type": "function"
    },
    {
      "inputs": [],
      "name": "symbol",
      "outputs": [
        {
          "internalType": "string",
          "name": "",
          "type": "string"
        }
      ],
      "stateMutability": "view",
      "type": "function",
      "constant": true
    },
    {
      "inputs": [
        {
          "internalType": "uint256",
          "name": "index",
          "type": "uint256"
        }
      ],
      "name": "tokenByIndex",
      "outputs": [
        {
          "internalType": "uint256",
          "name": "",
          "type": "uint256"
        }
      ],
      "stateMutability": "view",
      "type": "function",
      "constant": true
    },
    {
      "inputs": [
        {
          "internalType": "address",
          "name": "owner",
          "type": "address"
        },
        {
          "internalType": "uint256",
          "name": "index",
          "type": "uint256"
        }
      ],
      "name": "tokenOfOwnerByIndex",
      "outputs": [
        {
          "internalType": "uint256",
          "name": "",
          "type": "uint256"
        }
      ],
      "stateMutability": "view",
      "type": "function",
      "constant": true
    },
    {
      "inputs": [
        {
          "internalType": "uint256",
          "name": "tokenId",
          "type": "uint256"
        }
      ],
      "name": "tokenURI",
      "outputs": [
        {
          "internalType": "string",
          "name": "",
          "type": "string"
        }
      ],
      "stateMutability": "view",
      "type": "function",
      "constant": true
    },
    {
      "inputs": [],
      "name": "totalSupply",
      "outputs": [
        {
          "internalType": "uint256",
          "name": "",
          "type": "uint256"
        }
      ],
      "stateMutability": "view",
      "type": "function",
      "constant": true
    },
    {
      "inputs": [
        {
          "internalType": "address",
          "name": "from",
          "type": "address"
        },
        {
          "internalType": "address",
          "name": "to",
          "type": "address"
        },
        {
          "internalType": "uint256",
          "name": "tokenId",
          "type": "uint256"
        }
      ],
      "name": "transferFrom",
      "outputs": [],
      "stateMutability": "nonpayable",
      "type": "function"
    },
    {
      "inputs": [
        {
          "internalType": "address",
          "name": "newOwner",
          "type": "address"
        }
      ],
      "name": "transferOwnership",
      "outputs": [],
      "stateMutability": "nonpayable",
      "type": "function"
    },
    {
      "inputs": [
        {
          "internalType": "address payable",
          "name": "_to",
          "type": "address"
        },
        {
          "internalType": "uint256[]",
          "name": "_ids",
          "type": "uint256[]"
        }
      ],
      "name": "mint",
      "outputs": [],
      "stateMutability": "payable",
      "type": "function",
      "payable": true
    },
    {
      "inputs": [],
      "name": "startPreSale",
      "outputs": [],
      "stateMutability": "nonpayable",
      "type": "function"
    },
    {
      "inputs": [],
      "name": "startPublicSale",
      "outputs": [],
      "stateMutability": "nonpayable",
      "type": "function"
    },
    {
      "inputs": [],
      "name": "flipSaleState",
      "outputs": [],
      "stateMutability": "nonpayable",
      "type": "function"
    },
    {
      "inputs": [
        {
          "internalType": "address",
          "name": "attender",
          "type": "address"
        }
      ],
      "name": "addToWhitelist",
      "outputs": [],
      "stateMutability": "nonpayable",
      "type": "function"
    },
    {
      "inputs": [
        {
          "internalType": "address",
          "name": "attender",
          "type": "address"
        }
      ],
      "name": "removeFromWhitelist",
      "outputs": [],
      "stateMutability": "nonpayable",
      "type": "function"
    },
    {
      "inputs": [
        {
          "internalType": "string",
          "name": "baseURI",
          "type": "string"
        }
      ],
      "name": "setBaseURI",
      "outputs": [],
      "stateMutability": "nonpayable",
      "type": "function"
    },
    {
      "inputs": [
        {
          "internalType": "uint256",
          "name": "_count",
          "type": "uint256"
        }
      ],
      "name": "price",
      "outputs": [
        {
          "internalType": "uint256",
          "name": "",
          "type": "uint256"
        }
      ],
      "stateMutability": "view",
      "type": "function",
      "constant": true
    },
    {
      "inputs": [],
      "name": "occupiedList",
      "outputs": [
        {
          "internalType": "uint256[]",
          "name": "",
          "type": "uint256[]"
        }
      ],
      "stateMutability": "view",
      "type": "function",
      "constant": true
    },
    {
      "inputs": [],
      "name": "maxMint",
      "outputs": [
        {
          "internalType": "uint256",
          "name": "",
          "type": "uint256"
        }
      ],
      "stateMutability": "view",
      "type": "function",
      "constant": true
    },
    {
      "inputs": [],
      "name": "maxSales",
      "outputs": [
        {
          "internalType": "uint256",
          "name": "",
          "type": "uint256"
        }
      ],
      "stateMutability": "view",
      "type": "function",
      "constant": true
    },
    {
      "inputs": [],
      "name": "maxSupply",
      "outputs": [
        {
          "internalType": "uint256",
          "name": "",
          "type": "uint256"
        }
      ],
      "stateMutability": "pure",
      "type": "function",
      "constant": true
    },
    {
      "inputs": [],
      "name": "raised",
      "outputs": [
        {
          "internalType": "uint256",
          "name": "",
          "type": "uint256"
        }
      ],
      "stateMutability": "view",
      "type": "function",
      "constant": true
    },
    {
      "inputs": [
        {
          "internalType": "address",
          "name": "_owner",
          "type": "address"
        }
      ],
      "name": "getTokenIdsOfWallet",
      "outputs": [
        {
          "internalType": "uint256[]",
          "name": "",
          "type": "uint256[]"
        }
      ],
      "stateMutability": "view",
      "type": "function",
      "constant": true
    },
    {
      "inputs": [],
      "name": "withdrawAll",
      "outputs": [],
      "stateMutability": "payable",
      "type": "function",
      "payable": true
    },
    {
      "inputs": [
        {
          "internalType": "bytes4",
          "name": "interfaceId",
          "type": "bytes4"
        }
      ],
      "name": "supportsInterface",
      "outputs": [
        {
          "internalType": "bool",
          "name": "",
          "type": "bool"
        }
      ],
      "stateMutability": "view",
      "type": "function",
      "constant": true
    }
  ],
  "bytecode": "0x60806040526000600c60006101000a81548160ff0219169083151502179055503480156200002c57600080fd5b506040516200596b3803806200596b83398181016040528101906200005291906200042e565b6040518060400160405280600d81526020017f4361707461696e2043616e6479000000000000000000000000000000000000008152506040518060400160405280600281526020017f43430000000000000000000000000000000000000000000000000000000000008152508160009080519060200190620000d692919062000300565b508060019080519060200190620000ef92919062000300565b50505062000112620001066200015d60201b60201c565b6200016560201b60201c565b6000600a60146101000a81548160ff0219169083151502179055506200013e816200022b60201b60201c565b6000600d819055506064600e819055506064600f819055505062000686565b600033905090565b6000600a60009054906101000a900473ffffffffffffffffffffffffffffffffffffffff16905081600a60006101000a81548173ffffffffffffffffffffffffffffffffffffffff021916908373ffffffffffffffffffffffffffffffffffffffff1602179055508173ffffffffffffffffffffffffffffffffffffffff168173ffffffffffffffffffffffffffffffffffffffff167f8be0079c531659141344cd1fd0a4f28419497f9722a3daafe3b4186f6b6457e060405160405180910390a35050565b6200023b6200015d60201b60201c565b73ffffffffffffffffffffffffffffffffffffffff1662000261620002d660201b60201c565b73ffffffffffffffffffffffffffffffffffffffff1614620002ba576040517f08c379a0000000000000000000000000000000000000000000000000000000008152600401620002b190620004a6565b60405180910390fd5b8060149080519060200190620002d292919062000300565b5050565b6000600a60009054906101000a900473ffffffffffffffffffffffffffffffffffffffff16905090565b8280546200030e906200056e565b90600052602060002090601f0160209004810192826200033257600085556200037e565b82601f106200034d57805160ff19168380011785556200037e565b828001600101855582156200037e579182015b828111156200037d57825182559160200191906001019062000360565b5b5090506200038d919062000391565b5090565b5b80821115620003ac57600081600090555060010162000392565b5090565b6000620003c7620003c184620004f1565b620004c8565b905082815260208101848484011115620003e657620003e56200063d565b5b620003f384828562000538565b509392505050565b600082601f83011262000413576200041262000638565b5b815162000425848260208601620003b0565b91505092915050565b60006020828403121562000447576200044662000647565b5b600082015167ffffffffffffffff81111562000468576200046762000642565b5b6200047684828501620003fb565b91505092915050565b60006200048e60208362000527565b91506200049b826200065d565b602082019050919050565b60006020820190508181036000830152620004c1816200047f565b9050919050565b6000620004d4620004e7565b9050620004e28282620005a4565b919050565b6000604051905090565b600067ffffffffffffffff8211156200050f576200050e62000609565b5b6200051a826200064c565b9050602081019050919050565b600082825260208201905092915050565b60005b83811015620005585780820151818401526020810190506200053b565b8381111562000568576000848401525b50505050565b600060028204905060018216806200058757607f821691505b602082108114156200059e576200059d620005da565b5b50919050565b620005af826200064c565b810181811067ffffffffffffffff82111715620005d157620005d062000609565b5b80604052505050565b7f4e487b7100000000000000000000000000000000000000000000000000000000600052602260045260246000fd5b7f4e487b7100000000000000000000000000000000000000000000000000000000600052604160045260246000fd5b600080fd5b600080fd5b600080fd5b600080fd5b6000601f19601f8301169050919050565b7f4f776e61626c653a2063616c6c6572206973206e6f7420746865206f776e6572600082015250565b6152d580620006966000396000f3fe6080604052600436106102255760003560e01c80637501f74111610123578063bfdf9b6e116100ab578063e43252d71161006f578063e43252d7146107c7578063e985e9c5146107f0578063eef625081461082d578063f0ea4bfc1461086a578063f2fde38b1461089557610225565b8063bfdf9b6e146106db578063c87b56dd14610706578063cfdb63ac14610743578063d5abeb0114610780578063de836ebd146107ab57610225565b80638e26d2aa116100f25780638e26d2aa1461060857806395d89b4114610633578063a22cb4651461065e578063a769cba914610687578063b88d4fde146106b257610225565b80637501f7411461057f578063853828b6146105aa5780638ab1d681146105b45780638da5cb5b146105dd57610225565b806334918dfd116101b157806355f804b31161017557806355f804b31461049a5780635c975abb146104c35780636352211e146104ee57806370a082311461052b578063715018a61461056857610225565b806334918dfd146103dd57806342842e0e146103f457806342966c681461041d5780634f6ccce71461044657806355dd574c1461048357610225565b80630c1c972a116101f85780630c1c972a146102f857806318160ddd1461030f57806323b872dd1461033a57806326a49e37146103635780632f745c59146103a057610225565b806301ffc9a71461022a57806306fdde0314610267578063081812fc14610292578063095ea7b3146102cf575b600080fd5b34801561023657600080fd5b50610251600480360381019061024c91906138b1565b6108be565b60405161025e9190614022565b60405180910390f35b34801561027357600080fd5b5061027c6108d0565b604051610289919061403d565b60405180910390f35b34801561029e57600080fd5b506102b960048036038101906102b49190613954565b610962565b6040516102c69190613f7e565b60405180910390f35b3480156102db57600080fd5b506102f660048036038101906102f19190613871565b6109e7565b005b34801561030457600080fd5b5061030d610aff565b005b34801561031b57600080fd5b50610324610bd3565b604051610331919061443f565b60405180910390f35b34801561034657600080fd5b50610361600480360381019061035c919061375b565b610be0565b005b34801561036f57600080fd5b5061038a60048036038101906103859190613954565b610c40565b604051610397919061443f565b60405180910390f35b3480156103ac57600080fd5b506103c760048036038101906103c29190613871565b610c5e565b6040516103d4919061443f565b60405180910390f35b3480156103e957600080fd5b506103f2610d03565b005b34801561040057600080fd5b5061041b6004803603810190610416919061375b565b610dab565b005b34801561042957600080fd5b50610444600480360381019061043f9190613954565b610dcb565b005b34801561045257600080fd5b5061046d60048036038101906104689190613954565b610e27565b60405161047a919061443f565b60405180910390f35b34801561048f57600080fd5b50610498610e98565b005b3480156104a657600080fd5b506104c160048036038101906104bc919061390b565b610f78565b005b3480156104cf57600080fd5b506104d861100e565b6040516104e59190614022565b60405180910390f35b3480156104fa57600080fd5b5061051560048036038101906105109190613954565b611025565b6040516105229190613f7e565b60405180910390f35b34801561053757600080fd5b50610552600480360381019061054d9190613692565b6110d7565b60405161055f919061443f565b60405180910390f35b34801561057457600080fd5b5061057d61118f565b005b34801561058b57600080fd5b50610594611217565b6040516105a1919061443f565b60405180910390f35b6105b2611221565b005b3480156105c057600080fd5b506105db60048036038101906105d69190613692565b6112f9565b005b3480156105e957600080fd5b506105f26113d0565b6040516105ff9190613f7e565b60405180910390f35b34801561061457600080fd5b5061061d6113fa565b60405161062a9190614022565b60405180910390f35b34801561063f57600080fd5b5061064861140d565b604051610655919061403d565b60405180910390f35b34801561066a57600080fd5b5061068560048036038101906106809190613831565b61149f565b005b34801561069357600080fd5b5061069c611620565b6040516106a99190614000565b60405180910390f35b3480156106be57600080fd5b506106d960048036038101906106d491906137ae565b611678565b005b3480156106e757600080fd5b506106f06116da565b6040516106fd919061443f565b60405180910390f35b34801561071257600080fd5b5061072d60048036038101906107289190613954565b6116e4565b60405161073a919061403d565b60405180910390f35b34801561074f57600080fd5b5061076a60048036038101906107659190613692565b61178b565b6040516107779190614022565b60405180910390f35b34801561078c57600080fd5b506107956117ab565b6040516107a2919061443f565b60405180910390f35b6107c560048036038101906107c091906136bf565b6117b5565b005b3480156107d357600080fd5b506107ee60048036038101906107e99190613692565b611c2c565b005b3480156107fc57600080fd5b506108176004803603810190610812919061371b565b611d03565b6040516108249190614022565b60405180910390f35b34801561083957600080fd5b50610854600480360381019061084f9190613692565b611d97565b6040516108619190614000565b60405180910390f35b34801561087657600080fd5b5061087f611e45565b60405161088c919061443f565b60405180910390f35b3480156108a157600080fd5b506108bc60048036038101906108b79190613692565b611e4d565b005b60006108c982611f45565b9050919050565b6060600080546108df906147a7565b80601f016020809104026020016040519081016040528092919081815260200182805461090b906147a7565b80156109585780601f1061092d57610100808354040283529160200191610958565b820191906000526020600020905b81548152906001019060200180831161093b57829003601f168201915b5050505050905090565b600061096d82611fbf565b6109ac576040517f08c379a00000000000000000000000000000000000000000000000000000000081526004016109a39061429f565b60405180910390fd5b6004600083815260200190815260200160002060009054906101000a900473ffffffffffffffffffffffffffffffffffffffff169050919050565b60006109f282611025565b90508073ffffffffffffffffffffffffffffffffffffffff168373ffffffffffffffffffffffffffffffffffffffff161415610a63576040517f08c379a0000000000000000000000000000000000000000000000000000000008152600401610a5a9061435f565b60405180910390fd5b8073ffffffffffffffffffffffffffffffffffffffff16610a8261202b565b73ffffffffffffffffffffffffffffffffffffffff161480610ab15750610ab081610aab61202b565b611d03565b5b610af0576040517f08c379a0000000000000000000000000000000000000000000000000000000008152600401610ae79061421f565b60405180910390fd5b610afa8383612033565b505050565b610b0761202b565b73ffffffffffffffffffffffffffffffffffffffff16610b256113d0565b73ffffffffffffffffffffffffffffffffffffffff1614610b7b576040517f08c379a0000000000000000000000000000000000000000000000000000000008152600401610b72906142bf565b60405180910390fd5b6000601360006101000a81548160ff0219169083151502179055506001600c60006101000a81548160ff021916908315150217905550670de0b6b3a7640000600d81905550612710600e819055506014600f81905550565b6000600880549050905090565b610bf1610beb61202b565b826120ec565b610c30576040517f08c379a0000000000000000000000000000000000000000000000000000000008152600401610c279061439f565b60405180910390fd5b610c3b8383836121ca565b505050565b6000610c5782600d5461242690919063ffffffff16565b9050919050565b6000610c69836110d7565b8210610caa576040517f08c379a0000000000000000000000000000000000000000000000000000000008152600401610ca19061409f565b60405180910390fd5b600660008473ffffffffffffffffffffffffffffffffffffffff1673ffffffffffffffffffffffffffffffffffffffff168152602001908152602001600020600083815260200190815260200160002054905092915050565b610d0b61202b565b73ffffffffffffffffffffffffffffffffffffffff16610d296113d0565b73ffffffffffffffffffffffffffffffffffffffff1614610d7f576040517f08c379a0000000000000000000000000000000000000000000000000000000008152600401610d76906142bf565b60405180910390fd5b600c60009054906101000a900460ff1615600c60006101000a81548160ff021916908315150217905550565b610dc683838360405180602001604052806000815250611678565b505050565b610ddc610dd661202b565b826120ec565b610e1b576040517f08c379a0000000000000000000000000000000000000000000000000000000008152600401610e12906143df565b60405180910390fd5b610e248161243c565b50565b6000610e31610bd3565b8210610e72576040517f08c379a0000000000000000000000000000000000000000000000000000000008152600401610e69906143bf565b60405180910390fd5b60088281548110610e8657610e85614940565b5b90600052602060002001549050919050565b610ea061202b565b73ffffffffffffffffffffffffffffffffffffffff16610ebe6113d0565b73ffffffffffffffffffffffffffffffffffffffff1614610f14576040517f08c379a0000000000000000000000000000000000000000000000000000000008152600401610f0b906142bf565b60405180910390fd5b6001601360006101000a81548160ff0219169083151502179055506001600c60006101000a81548160ff021916908315150217905550671bc16d674ec80000600d8190555060646103e8610f689190614594565b600e819055506005600f81905550565b610f8061202b565b73ffffffffffffffffffffffffffffffffffffffff16610f9e6113d0565b73ffffffffffffffffffffffffffffffffffffffff1614610ff4576040517f08c379a0000000000000000000000000000000000000000000000000000000008152600401610feb906142bf565b60405180910390fd5b806014908051906020019061100a9291906133f3565b5050565b6000600a60149054906101000a900460ff16905090565b6000806002600084815260200190815260200160002060009054906101000a900473ffffffffffffffffffffffffffffffffffffffff169050600073ffffffffffffffffffffffffffffffffffffffff168173ffffffffffffffffffffffffffffffffffffffff1614156110ce576040517f08c379a00000000000000000000000000000000000000000000000000000000081526004016110c59061425f565b60405180910390fd5b80915050919050565b60008073ffffffffffffffffffffffffffffffffffffffff168273ffffffffffffffffffffffffffffffffffffffff161415611148576040517f08c379a000000000000000000000000000000000000000000000000000000000815260040161113f9061423f565b60405180910390fd5b600360008373ffffffffffffffffffffffffffffffffffffffff1673ffffffffffffffffffffffffffffffffffffffff168152602001908152602001600020549050919050565b61119761202b565b73ffffffffffffffffffffffffffffffffffffffff166111b56113d0565b73ffffffffffffffffffffffffffffffffffffffff161461120b576040517f08c379a0000000000000000000000000000000000000000000000000000000008152600401611202906142bf565b60405180910390fd5b611215600061254d565b565b6000600f54905090565b61122961202b565b73ffffffffffffffffffffffffffffffffffffffff166112476113d0565b73ffffffffffffffffffffffffffffffffffffffff161461129d576040517f08c379a0000000000000000000000000000000000000000000000000000000008152600401611294906142bf565b60405180910390fd5b6000479050600081116112e5576040517f08c379a00000000000000000000000000000000000000000000000000000000081526004016112dc9061433f565b60405180910390fd5b6112f66112f06113d0565b47612613565b50565b61130161202b565b73ffffffffffffffffffffffffffffffffffffffff1661131f6113d0565b73ffffffffffffffffffffffffffffffffffffffff1614611375576040517f08c379a000000000000000000000000000000000000000000000000000000000815260040161136c906142bf565b60405180910390fd5b6000601260008373ffffffffffffffffffffffffffffffffffffffff1673ffffffffffffffffffffffffffffffffffffffff16815260200190815260200160002060006101000a81548160ff02191690831515021790555050565b6000600a60009054906101000a900473ffffffffffffffffffffffffffffffffffffffff16905090565b600c60009054906101000a900460ff1681565b60606001805461141c906147a7565b80601f0160208091040260200160405190810160405280929190818152602001828054611448906147a7565b80156114955780601f1061146a57610100808354040283529160200191611495565b820191906000526020600020905b81548152906001019060200180831161147857829003601f168201915b5050505050905090565b6114a761202b565b73ffffffffffffffffffffffffffffffffffffffff168273ffffffffffffffffffffffffffffffffffffffff161415611515576040517f08c379a000000000000000000000000000000000000000000000000000000000815260040161150c906141bf565b60405180910390fd5b806005600061152261202b565b73ffffffffffffffffffffffffffffffffffffffff1673ffffffffffffffffffffffffffffffffffffffff16815260200190815260200160002060008473ffffffffffffffffffffffffffffffffffffffff1673ffffffffffffffffffffffffffffffffffffffff16815260200190815260200160002060006101000a81548160ff0219169083151502179055508173ffffffffffffffffffffffffffffffffffffffff166115cf61202b565b73ffffffffffffffffffffffffffffffffffffffff167f17307eab39ab6107e8899845ad3d59bd9653f200f220920489ca2b5937696c31836040516116149190614022565b60405180910390a35050565b6060601180548060200260200160405190810160405280929190818152602001828054801561166e57602002820191906000526020600020905b81548152602001906001019080831161165a575b5050505050905090565b61168961168361202b565b836120ec565b6116c8576040517f08c379a00000000000000000000000000000000000000000000000000000000081526004016116bf9061439f565b60405180910390fd5b6116d4848484846126c4565b50505050565b6000600e54905090565b60606116ef82611fbf565b61172e576040517f08c379a0000000000000000000000000000000000000000000000000000000008152600401611725906142ff565b60405180910390fd5b6000611738612720565b905060008151116117585760405180602001604052806000815250611783565b80611762846127b2565b604051602001611773929190613f45565b6040516020818303038152906040525b915050919050565b60126020528060005260406000206000915054906101000a900460ff1681565b6000612710905090565b6117bd6113d0565b73ffffffffffffffffffffffffffffffffffffffff166117db61202b565b73ffffffffffffffffffffffffffffffffffffffff161461184d5760011515600c60009054906101000a900460ff1615151461184c576040517f08c379a00000000000000000000000000000000000000000000000000000000081526004016118439061441f565b60405180910390fd5b5b612710611858612913565b1115611899576040517f08c379a0000000000000000000000000000000000000000000000000000000008152600401611890906143ff565b60405180910390fd5b6118a16113d0565b73ffffffffffffffffffffffffffffffffffffffff166118bf61202b565b73ffffffffffffffffffffffffffffffffffffffff1614611923576118e261100e565b15611922576040517f08c379a0000000000000000000000000000000000000000000000000000000008152600401611919906140ff565b60405180910390fd5b5b600061192d612913565b905060011515601360009054906101000a900460ff16151514156119df5760011515601260008573ffffffffffffffffffffffffffffffffffffffff1673ffffffffffffffffffffffffffffffffffffffff16815260200190815260200160002060009054906101000a900460ff161515146119de576040517f08c379a00000000000000000000000000000000000000000000000000000000081526004016119d59061407f565b60405180910390fd5b5b600e548251826119ef9190614594565b1115611a30576040517f08c379a0000000000000000000000000000000000000000000000000000000008152600401611a279061411f565b60405180910390fd5b600e54811115611a75576040517f08c379a0000000000000000000000000000000000000000000000000000000008152600401611a6c906140df565b60405180910390fd5b600f5482511115611abb576040517f08c379a0000000000000000000000000000000000000000000000000000000008152600401611ab29061437f565b60405180910390fd5b611ac36113d0565b73ffffffffffffffffffffffffffffffffffffffff168373ffffffffffffffffffffffffffffffffffffffff1614611b4257611aff8251610c40565b341015611b41576040517f08c379a0000000000000000000000000000000000000000000000000000000008152600401611b38906141df565b60405180910390fd5b5b60005b8251811015611be2576000151560106000858481518110611b6957611b68614940565b5b6020026020010151815260200190815260200160002060009054906101000a900460ff16151514611bcf576040517f08c379a0000000000000000000000000000000000000000000000000000000008152600401611bc69061431f565b60405180910390fd5b8080611bda9061480a565b915050611b45565b5060005b8251811015611c2657611c1384848381518110611c0657611c05614940565b5b6020026020010151612924565b8080611c1e9061480a565b915050611be6565b50505050565b611c3461202b565b73ffffffffffffffffffffffffffffffffffffffff16611c526113d0565b73ffffffffffffffffffffffffffffffffffffffff1614611ca8576040517f08c379a0000000000000000000000000000000000000000000000000000000008152600401611c9f906142bf565b60405180910390fd5b6001601260008373ffffffffffffffffffffffffffffffffffffffff1673ffffffffffffffffffffffffffffffffffffffff16815260200190815260200160002060006101000a81548160ff02191690831515021790555050565b6000600560008473ffffffffffffffffffffffffffffffffffffffff1673ffffffffffffffffffffffffffffffffffffffff16815260200190815260200160002060008373ffffffffffffffffffffffffffffffffffffffff1673ffffffffffffffffffffffffffffffffffffffff16815260200190815260200160002060009054906101000a900460ff16905092915050565b60606000611da4836110d7565b905060008167ffffffffffffffff811115611dc257611dc161496f565b5b604051908082528060200260200182016040528015611df05781602001602082028036833780820191505090505b50905060005b82811015611e3a57611e088582610c5e565b828281518110611e1b57611e1a614940565b5b6020026020010181815250508080611e329061480a565b915050611df6565b508092505050919050565b600047905090565b611e5561202b565b73ffffffffffffffffffffffffffffffffffffffff16611e736113d0565b73ffffffffffffffffffffffffffffffffffffffff1614611ec9576040517f08c379a0000000000000000000000000000000000000000000000000000000008152600401611ec0906142bf565b60405180910390fd5b600073ffffffffffffffffffffffffffffffffffffffff168173ffffffffffffffffffffffffffffffffffffffff161415611f39576040517f08c379a0000000000000000000000000000000000000000000000000000000008152600401611f309061413f565b60405180910390fd5b611f428161254d565b50565b60007f780e9d63000000000000000000000000000000000000000000000000000000007bffffffffffffffffffffffffffffffffffffffffffffffffffffffff1916827bffffffffffffffffffffffffffffffffffffffffffffffffffffffff19161480611fb85750611fb7826129c9565b5b9050919050565b60008073ffffffffffffffffffffffffffffffffffffffff166002600084815260200190815260200160002060009054906101000a900473ffffffffffffffffffffffffffffffffffffffff1673ffffffffffffffffffffffffffffffffffffffff1614159050919050565b600033905090565b816004600083815260200190815260200160002060006101000a81548173ffffffffffffffffffffffffffffffffffffffff021916908373ffffffffffffffffffffffffffffffffffffffff160217905550808273ffffffffffffffffffffffffffffffffffffffff166120a683611025565b73ffffffffffffffffffffffffffffffffffffffff167f8c5be1e5ebec7d5bd14f71427d1e84f3dd0314c0f7b2291e5b200ac8c7c3b92560405160405180910390a45050565b60006120f782611fbf565b612136576040517f08c379a000000000000000000000000000000000000000000000000000000000815260040161212d906141ff565b60405180910390fd5b600061214183611025565b90508073ffffffffffffffffffffffffffffffffffffffff168473ffffffffffffffffffffffffffffffffffffffff1614806121b057508373ffffffffffffffffffffffffffffffffffffffff1661219884610962565b73ffffffffffffffffffffffffffffffffffffffff16145b806121c157506121c08185611d03565b5b91505092915050565b8273ffffffffffffffffffffffffffffffffffffffff166121ea82611025565b73ffffffffffffffffffffffffffffffffffffffff1614612240576040517f08c379a0000000000000000000000000000000000000000000000000000000008152600401612237906142df565b60405180910390fd5b600073ffffffffffffffffffffffffffffffffffffffff168273ffffffffffffffffffffffffffffffffffffffff1614156122b0576040517f08c379a00000000000000000000000000000000000000000000000000000000081526004016122a79061419f565b60405180910390fd5b6122bb838383612aab565b6122c6600082612033565b6001600360008573ffffffffffffffffffffffffffffffffffffffff1673ffffffffffffffffffffffffffffffffffffffff16815260200190815260200160002060008282546123169190614675565b925050819055506001600360008473ffffffffffffffffffffffffffffffffffffffff1673ffffffffffffffffffffffffffffffffffffffff168152602001908152602001600020600082825461236d9190614594565b92505081905550816002600083815260200190815260200160002060006101000a81548173ffffffffffffffffffffffffffffffffffffffff021916908373ffffffffffffffffffffffffffffffffffffffff160217905550808273ffffffffffffffffffffffffffffffffffffffff168473ffffffffffffffffffffffffffffffffffffffff167fddf252ad1be2c89b69c2b068fc378daa952ba7f163c4a11628f55a4df523b3ef60405160405180910390a4505050565b60008183612434919061461b565b905092915050565b600061244782611025565b905061245581600084612aab565b612460600083612033565b6001600360008373ffffffffffffffffffffffffffffffffffffffff1673ffffffffffffffffffffffffffffffffffffffff16815260200190815260200160002060008282546124b09190614675565b925050819055506002600083815260200190815260200160002060006101000a81549073ffffffffffffffffffffffffffffffffffffffff021916905581600073ffffffffffffffffffffffffffffffffffffffff168273ffffffffffffffffffffffffffffffffffffffff167fddf252ad1be2c89b69c2b068fc378daa952ba7f163c4a11628f55a4df523b3ef60405160405180910390a45050565b6000600a60009054906101000a900473ffffffffffffffffffffffffffffffffffffffff16905081600a60006101000a81548173ffffffffffffffffffffffffffffffffffffffff021916908373ffffffffffffffffffffffffffffffffffffffff1602179055508173ffffffffffffffffffffffffffffffffffffffff168173ffffffffffffffffffffffffffffffffffffffff167f8be0079c531659141344cd1fd0a4f28419497f9722a3daafe3b4186f6b6457e060405160405180910390a35050565b60008273ffffffffffffffffffffffffffffffffffffffff168260405161263990613f69565b60006040518083038185875af1925050503d8060008114612676576040519150601f19603f3d011682016040523d82523d6000602084013e61267b565b606091505b50509050806126bf576040517f08c379a00000000000000000000000000000000000000000000000000000000081526004016126b69061417f565b60405180910390fd5b505050565b6126cf8484846121ca565b6126db84848484612abb565b61271a576040517f08c379a0000000000000000000000000000000000000000000000000000000008152600401612711906140bf565b60405180910390fd5b50505050565b60606014805461272f906147a7565b80601f016020809104026020016040519081016040528092919081815260200182805461275b906147a7565b80156127a85780601f1061277d576101008083540402835291602001916127a8565b820191906000526020600020905b81548152906001019060200180831161278b57829003601f168201915b5050505050905090565b606060008214156127fa576040518060400160405280600181526020017f3000000000000000000000000000000000000000000000000000000000000000815250905061290e565b600082905060005b6000821461282c5780806128159061480a565b915050600a8261282591906145ea565b9150612802565b60008167ffffffffffffffff8111156128485761284761496f565b5b6040519080825280601f01601f19166020018201604052801561287a5781602001600182028036833780820191505090505b5090505b60008514612907576001826128939190614675565b9150600a856128a29190614853565b60306128ae9190614594565b60f81b8183815181106128c4576128c3614940565b5b60200101907effffffffffffffffffffffffffffffffffffffffffffffffffffffffffffff1916908160001a905350600a8561290091906145ea565b945061287e565b8093505050505b919050565b600061291f600b612c52565b905090565b61292e600b612c60565b6129388282612c76565b60016010600083815260200190815260200160002060006101000a81548160ff0219169083151502179055506011819080600181540180825580915050600190039060005260206000200160009091909190915055807fea003ee8da0ffa6fea72e4d1925044d0497f1b56b14ac9dd17a77967c92e8305836040516129bd9190613f99565b60405180910390a25050565b60007f80ac58cd000000000000000000000000000000000000000000000000000000007bffffffffffffffffffffffffffffffffffffffffffffffffffffffff1916827bffffffffffffffffffffffffffffffffffffffffffffffffffffffff19161480612a9457507f5b5e139f000000000000000000000000000000000000000000000000000000007bffffffffffffffffffffffffffffffffffffffffffffffffffffffff1916827bffffffffffffffffffffffffffffffffffffffffffffffffffffffff1916145b80612aa45750612aa382612c94565b5b9050919050565b612ab6838383612cfe565b505050565b6000612adc8473ffffffffffffffffffffffffffffffffffffffff16612d98565b15612c45578373ffffffffffffffffffffffffffffffffffffffff1663150b7a02612b0561202b565b8786866040518563ffffffff1660e01b8152600401612b279493929190613fb4565b602060405180830381600087803b158015612b4157600080fd5b505af1925050508015612b7257506040513d601f19601f82011682018060405250810190612b6f91906138de565b60015b612bf5573d8060008114612ba2576040519150601f19603f3d011682016040523d82523d6000602084013e612ba7565b606091505b50600081511415612bed576040517f08c379a0000000000000000000000000000000000000000000000000000000008152600401612be4906140bf565b60405180910390fd5b805181602001fd5b63150b7a0260e01b7bffffffffffffffffffffffffffffffffffffffffffffffffffffffff1916817bffffffffffffffffffffffffffffffffffffffffffffffffffffffff191614915050612c4a565b600190505b949350505050565b600081600001549050919050565b6001816000016000828254019250508190555050565b612c90828260405180602001604052806000815250612dab565b5050565b60007f01ffc9a7000000000000000000000000000000000000000000000000000000007bffffffffffffffffffffffffffffffffffffffffffffffffffffffff1916827bffffffffffffffffffffffffffffffffffffffffffffffffffffffff1916149050919050565b612d09838383612e06565b612d116113d0565b73ffffffffffffffffffffffffffffffffffffffff16612d2f61202b565b73ffffffffffffffffffffffffffffffffffffffff1614612d9357612d5261100e565b15612d92576040517f08c379a0000000000000000000000000000000000000000000000000000000008152600401612d899061405f565b60405180910390fd5b5b505050565b600080823b905060008111915050919050565b612db58383612f1a565b612dc26000848484612abb565b612e01576040517f08c379a0000000000000000000000000000000000000000000000000000000008152600401612df8906140bf565b60405180910390fd5b505050565b612e118383836130e8565b600073ffffffffffffffffffffffffffffffffffffffff168373ffffffffffffffffffffffffffffffffffffffff161415612e5457612e4f816130ed565b612e93565b8173ffffffffffffffffffffffffffffffffffffffff168373ffffffffffffffffffffffffffffffffffffffff1614612e9257612e918382613136565b5b5b600073ffffffffffffffffffffffffffffffffffffffff168273ffffffffffffffffffffffffffffffffffffffff161415612ed657612ed1816132a3565b612f15565b8273ffffffffffffffffffffffffffffffffffffffff168273ffffffffffffffffffffffffffffffffffffffff1614612f1457612f138282613374565b5b5b505050565b600073ffffffffffffffffffffffffffffffffffffffff168273ffffffffffffffffffffffffffffffffffffffff161415612f8a576040517f08c379a0000000000000000000000000000000000000000000000000000000008152600401612f819061427f565b60405180910390fd5b612f9381611fbf565b15612fd3576040517f08c379a0000000000000000000000000000000000000000000000000000000008152600401612fca9061415f565b60405180910390fd5b612fdf60008383612aab565b6001600360008473ffffffffffffffffffffffffffffffffffffffff1673ffffffffffffffffffffffffffffffffffffffff168152602001908152602001600020600082825461302f9190614594565b92505081905550816002600083815260200190815260200160002060006101000a81548173ffffffffffffffffffffffffffffffffffffffff021916908373ffffffffffffffffffffffffffffffffffffffff160217905550808273ffffffffffffffffffffffffffffffffffffffff16600073ffffffffffffffffffffffffffffffffffffffff167fddf252ad1be2c89b69c2b068fc378daa952ba7f163c4a11628f55a4df523b3ef60405160405180910390a45050565b505050565b6008805490506009600083815260200190815260200160002081905550600881908060018154018082558091505060019003906000526020600020016000909190919091505550565b60006001613143846110d7565b61314d9190614675565b9050600060076000848152602001908152602001600020549050818114613232576000600660008673ffffffffffffffffffffffffffffffffffffffff1673ffffffffffffffffffffffffffffffffffffffff168152602001908152602001600020600084815260200190815260200160002054905080600660008773ffffffffffffffffffffffffffffffffffffffff1673ffffffffffffffffffffffffffffffffffffffff168152602001908152602001600020600084815260200190815260200160002081905550816007600083815260200190815260200160002081905550505b6007600084815260200190815260200160002060009055600660008573ffffffffffffffffffffffffffffffffffffffff1673ffffffffffffffffffffffffffffffffffffffff16815260200190815260200160002060008381526020019081526020016000206000905550505050565b600060016008805490506132b79190614675565b90506000600960008481526020019081526020016000205490506000600883815481106132e7576132e6614940565b5b90600052602060002001549050806008838154811061330957613308614940565b5b90600052602060002001819055508160096000838152602001908152602001600020819055506009600085815260200190815260200160002060009055600880548061335857613357614911565b5b6001900381819060005260206000200160009055905550505050565b600061337f836110d7565b905081600660008573ffffffffffffffffffffffffffffffffffffffff1673ffffffffffffffffffffffffffffffffffffffff168152602001908152602001600020600083815260200190815260200160002081905550806007600084815260200190815260200160002081905550505050565b8280546133ff906147a7565b90600052602060002090601f0160209004810192826134215760008555613468565b82601f1061343a57805160ff1916838001178555613468565b82800160010185558215613468579182015b8281111561346757825182559160200191906001019061344c565b5b5090506134759190613479565b5090565b5b8082111561349257600081600090555060010161347a565b5090565b60006134a96134a48461447f565b61445a565b905080838252602082019050828560208602820111156134cc576134cb6149a3565b5b60005b858110156134fc57816134e2888261367d565b8452602084019350602083019250506001810190506134cf565b5050509392505050565b6000613519613514846144ab565b61445a565b905082815260208101848484011115613535576135346149a8565b5b613540848285614765565b509392505050565b600061355b613556846144dc565b61445a565b905082815260208101848484011115613577576135766149a8565b5b613582848285614765565b509392505050565b6000813590506135998161522c565b92915050565b6000813590506135ae81615243565b92915050565b600082601f8301126135c9576135c861499e565b5b81356135d9848260208601613496565b91505092915050565b6000813590506135f18161525a565b92915050565b60008135905061360681615271565b92915050565b60008151905061361b81615271565b92915050565b600082601f8301126136365761363561499e565b5b8135613646848260208601613506565b91505092915050565b600082601f8301126136645761366361499e565b5b8135613674848260208601613548565b91505092915050565b60008135905061368c81615288565b92915050565b6000602082840312156136a8576136a76149b2565b5b60006136b68482850161358a565b91505092915050565b600080604083850312156136d6576136d56149b2565b5b60006136e48582860161359f565b925050602083013567ffffffffffffffff811115613705576137046149ad565b5b613711858286016135b4565b9150509250929050565b60008060408385031215613732576137316149b2565b5b60006137408582860161358a565b92505060206137518582860161358a565b9150509250929050565b600080600060608486031215613774576137736149b2565b5b60006137828682870161358a565b93505060206137938682870161358a565b92505060406137a48682870161367d565b9150509250925092565b600080600080608085870312156137c8576137c76149b2565b5b60006137d68782880161358a565b94505060206137e78782880161358a565b93505060406137f88782880161367d565b925050606085013567ffffffffffffffff811115613819576138186149ad565b5b61382587828801613621565b91505092959194509250565b60008060408385031215613848576138476149b2565b5b60006138568582860161358a565b9250506020613867858286016135e2565b9150509250929050565b60008060408385031215613888576138876149b2565b5b60006138968582860161358a565b92505060206138a78582860161367d565b9150509250929050565b6000602082840312156138c7576138c66149b2565b5b60006138d5848285016135f7565b91505092915050565b6000602082840312156138f4576138f36149b2565b5b60006139028482850161360c565b91505092915050565b600060208284031215613921576139206149b2565b5b600082013567ffffffffffffffff81111561393f5761393e6149ad565b5b61394b8482850161364f565b91505092915050565b60006020828403121561396a576139696149b2565b5b60006139788482850161367d565b91505092915050565b600061398d8383613f27565b60208301905092915050565b6139a28161472f565b82525050565b6139b1816146a9565b82525050565b60006139c28261451d565b6139cc818561454b565b93506139d78361450d565b8060005b83811015613a085781516139ef8882613981565b97506139fa8361453e565b9250506001810190506139db565b5085935050505092915050565b613a1e816146cd565b82525050565b6000613a2f82614528565b613a39818561455c565b9350613a49818560208601614774565b613a52816149b7565b840191505092915050565b6000613a6882614533565b613a728185614578565b9350613a82818560208601614774565b613a8b816149b7565b840191505092915050565b6000613aa182614533565b613aab8185614589565b9350613abb818560208601614774565b80840191505092915050565b6000613ad4602b83614578565b9150613adf826149c8565b604082019050919050565b6000613af7602c83614578565b9150613b0282614a17565b604082019050919050565b6000613b1a602b83614578565b9150613b2582614a66565b604082019050919050565b6000613b3d603283614578565b9150613b4882614ab5565b604082019050919050565b6000613b60603483614578565b9150613b6b82614b04565b604082019050919050565b6000613b83601083614578565b9150613b8e82614b53565b602082019050919050565b6000613ba6603283614578565b9150613bb182614b7c565b604082019050919050565b6000613bc9602683614578565b9150613bd482614bcb565b604082019050919050565b6000613bec601c83614578565b9150613bf782614c1a565b602082019050919050565b6000613c0f601a83614578565b9150613c1a82614c43565b602082019050919050565b6000613c32602483614578565b9150613c3d82614c6c565b604082019050919050565b6000613c55601983614578565b9150613c6082614cbb565b602082019050919050565b6000613c78603d83614578565b9150613c8382614ce4565b604082019050919050565b6000613c9b602c83614578565b9150613ca682614d33565b604082019050919050565b6000613cbe603883614578565b9150613cc982614d82565b604082019050919050565b6000613ce1602a83614578565b9150613cec82614dd1565b604082019050919050565b6000613d04602983614578565b9150613d0f82614e20565b604082019050919050565b6000613d27602083614578565b9150613d3282614e6f565b602082019050919050565b6000613d4a602c83614578565b9150613d5582614e98565b604082019050919050565b6000613d6d602083614578565b9150613d7882614ee7565b602082019050919050565b6000613d90602983614578565b9150613d9b82614f10565b604082019050919050565b6000613db3602f83614578565b9150613dbe82614f5f565b604082019050919050565b6000613dd6603a83614578565b9150613de182614fae565b604082019050919050565b6000613df9602083614578565b9150613e0482614ffd565b602082019050919050565b6000613e1c602183614578565b9150613e2782615026565b604082019050919050565b6000613e3f60008361456d565b9150613e4a82615075565b600082019050919050565b6000613e62602f83614578565b9150613e6d82615078565b604082019050919050565b6000613e85603183614578565b9150613e90826150c7565b604082019050919050565b6000613ea8602c83614578565b9150613eb382615116565b604082019050919050565b6000613ecb603083614578565b9150613ed682615165565b604082019050919050565b6000613eee600f83614578565b9150613ef9826151b4565b602082019050919050565b6000613f11603e83614578565b9150613f1c826151dd565b604082019050919050565b613f3081614725565b82525050565b613f3f81614725565b82525050565b6000613f518285613a96565b9150613f5d8284613a96565b91508190509392505050565b6000613f7482613e32565b9150819050919050565b6000602082019050613f9360008301846139a8565b92915050565b6000602082019050613fae6000830184613999565b92915050565b6000608082019050613fc960008301876139a8565b613fd660208301866139a8565b613fe36040830185613f36565b8181036060830152613ff58184613a24565b905095945050505050565b6000602082019050818103600083015261401a81846139b7565b905092915050565b60006020820190506140376000830184613a15565b92915050565b600060208201905081810360008301526140578184613a5d565b905092915050565b6000602082019050818103600083015261407881613ac7565b9050919050565b6000602082019050818103600083015261409881613aea565b9050919050565b600060208201905081810360008301526140b881613b0d565b9050919050565b600060208201905081810360008301526140d881613b30565b9050919050565b600060208201905081810360008301526140f881613b53565b9050919050565b6000602082019050818103600083015261411881613b76565b9050919050565b6000602082019050818103600083015261413881613b99565b9050919050565b6000602082019050818103600083015261415881613bbc565b9050919050565b6000602082019050818103600083015261417881613bdf565b9050919050565b6000602082019050818103600083015261419881613c02565b9050919050565b600060208201905081810360008301526141b881613c25565b9050919050565b600060208201905081810360008301526141d881613c48565b9050919050565b600060208201905081810360008301526141f881613c6b565b9050919050565b6000602082019050818103600083015261421881613c8e565b9050919050565b6000602082019050818103600083015261423881613cb1565b9050919050565b6000602082019050818103600083015261425881613cd4565b9050919050565b6000602082019050818103600083015261427881613cf7565b9050919050565b6000602082019050818103600083015261429881613d1a565b9050919050565b600060208201905081810360008301526142b881613d3d565b9050919050565b600060208201905081810360008301526142d881613d60565b9050919050565b600060208201905081810360008301526142f881613d83565b9050919050565b6000602082019050818103600083015261431881613da6565b9050919050565b6000602082019050818103600083015261433881613dc9565b9050919050565b6000602082019050818103600083015261435881613dec565b9050919050565b6000602082019050818103600083015261437881613e0f565b9050919050565b6000602082019050818103600083015261439881613e55565b9050919050565b600060208201905081810360008301526143b881613e78565b9050919050565b600060208201905081810360008301526143d881613e9b565b9050919050565b600060208201905081810360008301526143f881613ebe565b9050919050565b6000602082019050818103600083015261441881613ee1565b9050919050565b6000602082019050818103600083015261443881613f04565b9050919050565b60006020820190506144546000830184613f36565b92915050565b6000614464614475565b905061447082826147d9565b919050565b6000604051905090565b600067ffffffffffffffff82111561449a5761449961496f565b5b602082029050602081019050919050565b600067ffffffffffffffff8211156144c6576144c561496f565b5b6144cf826149b7565b9050602081019050919050565b600067ffffffffffffffff8211156144f7576144f661496f565b5b614500826149b7565b9050602081019050919050565b6000819050602082019050919050565b600081519050919050565b600081519050919050565b600081519050919050565b6000602082019050919050565b600082825260208201905092915050565b600082825260208201905092915050565b600081905092915050565b600082825260208201905092915050565b600081905092915050565b600061459f82614725565b91506145aa83614725565b9250827fffffffffffffffffffffffffffffffffffffffffffffffffffffffffffffffff038211156145df576145de614884565b5b828201905092915050565b60006145f582614725565b915061460083614725565b9250826146105761460f6148b3565b5b828204905092915050565b600061462682614725565b915061463183614725565b9250817fffffffffffffffffffffffffffffffffffffffffffffffffffffffffffffffff048311821515161561466a57614669614884565b5b828202905092915050565b600061468082614725565b915061468b83614725565b92508282101561469e5761469d614884565b5b828203905092915050565b60006146b482614705565b9050919050565b60006146c682614705565b9050919050565b60008115159050919050565b60007fffffffff0000000000000000000000000000000000000000000000000000000082169050919050565b600073ffffffffffffffffffffffffffffffffffffffff82169050919050565b6000819050919050565b600061473a82614741565b9050919050565b600061474c82614753565b9050919050565b600061475e82614705565b9050919050565b82818337600083830152505050565b60005b83811015614792578082015181840152602081019050614777565b838111156147a1576000848401525b50505050565b600060028204905060018216806147bf57607f821691505b602082108114156147d3576147d26148e2565b5b50919050565b6147e2826149b7565b810181811067ffffffffffffffff821117156148015761480061496f565b5b80604052505050565b600061481582614725565b91507fffffffffffffffffffffffffffffffffffffffffffffffffffffffffffffffff82141561484857614847614884565b5b600182019050919050565b600061485e82614725565b915061486983614725565b925082614879576148786148b3565b5b828206905092915050565b7f4e487b7100000000000000000000000000000000000000000000000000000000600052601160045260246000fd5b7f4e487b7100000000000000000000000000000000000000000000000000000000600052601260045260246000fd5b7f4e487b7100000000000000000000000000000000000000000000000000000000600052602260045260246000fd5b7f4e487b7100000000000000000000000000000000000000000000000000000000600052603160045260246000fd5b7f4e487b7100000000000000000000000000000000000000000000000000000000600052603260045260246000fd5b7f4e487b7100000000000000000000000000000000000000000000000000000000600052604160045260246000fd5b600080fd5b600080fd5b600080fd5b600080fd5b600080fd5b6000601f19601f8301169050919050565b7f4552433732315061757361626c653a20746f6b656e207472616e73666572207760008201527f68696c6520706175736564000000000000000000000000000000000000000000602082015250565b7f50524553414c453a204f6e6c79207265676973746572656420637573746f6d6560008201527f72732063616e206d696e74210000000000000000000000000000000000000000602082015250565b7f455243373231456e756d657261626c653a206f776e657220696e646578206f7560008201527f74206f6620626f756e6473000000000000000000000000000000000000000000602082015250565b7f4552433732313a207472616e7366657220746f206e6f6e20455243373231526560008201527f63656976657220696d706c656d656e7465720000000000000000000000000000602082015250565b7f4d494e543a20506c6561736520676f20746f20746865204f70656e736561207460008201527f6f20627579204361707461696e2043616e64792e000000000000000000000000602082015250565b7f5041555341424c453a2050617573656400000000000000000000000000000000600082015250565b7f4d494e543a2043757272656e7420636f756e742065786365656473206d61786960008201527f6d756d20656c656d656e7420636f756e742e0000000000000000000000000000602082015250565b7f4f776e61626c653a206e6577206f776e657220697320746865207a65726f206160008201527f6464726573730000000000000000000000000000000000000000000000000000602082015250565b7f4552433732313a20746f6b656e20616c7265616479206d696e74656400000000600082015250565b7f57495448445241573a205472616e73666572206661696c65642e000000000000600082015250565b7f4552433732313a207472616e7366657220746f20746865207a65726f2061646460008201527f7265737300000000000000000000000000000000000000000000000000000000602082015250565b7f4552433732313a20617070726f766520746f2063616c6c657200000000000000600082015250565b7f4d494e543a2043757272656e742076616c75652069732062656c6f772074686560008201527f2073616c6573207072696365206f66204361707461696e2043616e6479000000602082015250565b7f4552433732313a206f70657261746f7220717565727920666f72206e6f6e657860008201527f697374656e7420746f6b656e0000000000000000000000000000000000000000602082015250565b7f4552433732313a20617070726f76652063616c6c6572206973206e6f74206f7760008201527f6e6572206e6f7220617070726f76656420666f7220616c6c0000000000000000602082015250565b7f4552433732313a2062616c616e636520717565727920666f7220746865207a6560008201527f726f206164647265737300000000000000000000000000000000000000000000602082015250565b7f4552433732313a206f776e657220717565727920666f72206e6f6e657869737460008201527f656e7420746f6b656e0000000000000000000000000000000000000000000000602082015250565b7f4552433732313a206d696e7420746f20746865207a65726f2061646472657373600082015250565b7f4552433732313a20617070726f76656420717565727920666f72206e6f6e657860008201527f697374656e7420746f6b656e0000000000000000000000000000000000000000602082015250565b7f4f776e61626c653a2063616c6c6572206973206e6f7420746865206f776e6572600082015250565b7f4552433732313a207472616e73666572206f6620746f6b656e2074686174206960008201527f73206e6f74206f776e0000000000000000000000000000000000000000000000602082015250565b7f4552433732314d657461646174613a2055524920717565727920666f72206e6f60008201527f6e6578697374656e7420746f6b656e0000000000000000000000000000000000602082015250565b7f4d494e543a2054686f73652069647320616c726561647920686176652062656560008201527f6e207573656420666f72206f7468657220637573746f6d657273000000000000602082015250565b7f57495448445241573a204e6f2062616c616e636520696e20636f6e7472616374600082015250565b7f4552433732313a20617070726f76616c20746f2063757272656e74206f776e6560008201527f7200000000000000000000000000000000000000000000000000000000000000602082015250565b50565b7f4d494e543a2043757272656e7420636f756e742065786365656473206d61786960008201527f6d756d206d696e7420636f756e742e0000000000000000000000000000000000602082015250565b7f4552433732313a207472616e736665722063616c6c6572206973206e6f74206f60008201527f776e6572206e6f7220617070726f766564000000000000000000000000000000602082015250565b7f455243373231456e756d657261626c653a20676c6f62616c20696e646578206f60008201527f7574206f6620626f756e64730000000000000000000000000000000000000000602082015250565b7f4552433732314275726e61626c653a2063616c6c6572206973206e6f74206f7760008201527f6e6572206e6f7220617070726f76656400000000000000000000000000000000602082015250565b7f53414c45533a2053616c6520656e640000000000000000000000000000000000600082015250565b7f53414c45533a20506c656173652077616974206120626967206c6f6e6765722060008201527f6265666f726520627579696e67204361707461696e2043616e6479203b290000602082015250565b615235816146a9565b811461524057600080fd5b50565b61524c816146bb565b811461525757600080fd5b50565b615263816146cd565b811461526e57600080fd5b50565b61527a816146d9565b811461528557600080fd5b50565b61529181614725565b811461529c57600080fd5b5056fea264697066735822122048b2f1774d6ad394c2c3bf624b6569dba5a9f974d1636040532ccd11d9f72d0464736f6c63430008070033",
  "immutableReferences": {},
  "source": "// SPDX-License-Identifier: MIT\r\n\r\npragma solidity ^0.8.7;\r\n\r\nimport \"@openzeppelin/contracts/token/ERC721/ERC721.sol\";\r\nimport \"@openzeppelin/contracts/token/ERC721/extensions/ERC721Enumerable.sol\";\r\nimport \"@openzeppelin/contracts/token/ERC721/extensions/ERC721Burnable.sol\";\r\nimport \"@openzeppelin/contracts/access/Ownable.sol\";\r\nimport \"@openzeppelin/contracts/utils/math/SafeMath.sol\";\r\nimport \"@openzeppelin/contracts/utils/Counters.sol\";\r\nimport \"./ERC721Pausable.sol\";\r\n\r\ncontract CaptainCandy is ERC721Enumerable, Ownable, ERC721Burnable, ERC721Pausable {\r\n\r\n    using SafeMath for uint256;\r\n    using Counters for Counters.Counter;\r\n\r\n    Counters.Counter private _tokenIdTracker;\r\n\r\n    bool public SALE_OPEN = false;\r\n\r\n    uint256 private constant PRICE = 1 * 10**18; // 200 Matic Captain Candy\r\n    uint256 private constant PRICE_PRESALE = 2 * 10**18; // 150 Matic Per Captain Candy\r\n    // uint256 private constant PRICE = 2 * 10**2 * 10**18; // 200 Matic Captain Candy\r\n    // uint256 private constant PRICE_PRESALE = 15 * 10 * 10**18; // 150 Matic Per Captain Candy\r\n    uint256 private constant PRICE_PREMINT = 0; // Free Mint\r\n\r\n    uint256 private constant MAX_ELEMENTS = 10000; // 10,000 Captain Candies for Entire Collection.\r\n    uint256 private constant MAX_ELEMENTS_PRESALE = 1000; // 1,000 Captain Candies for Pre-Sale.\r\n    uint256 private constant MAX_ELEMENTS_PREMINT = 100; // 100 Captain Candies for GiveAway.\r\n\r\n    uint256 private constant MAX_MINT = 20; // Upper Limit per Mint is 20\r\n    uint256 private constant MAX_MINT_PRESALE = 5; // Upper Limit per Mint is 5\r\n    uint256 private constant MAX_MINT_PREMINT = 100; // Upper Limit per Mint is 28\r\n\r\n    uint256 private _price;\r\n    uint256 private _maxElements;\r\n    uint256 private _maxMint;\r\n\r\n    mapping(uint256 => bool) private _isOccupiedId;\r\n    uint256[] private _occupiedList;\r\n\r\n    mapping(address => bool) public _whitelist;\r\n    bool private _isPresale;\r\n\r\n    string private baseTokenURI;\r\n\r\n    // address private developerAddress = 0x95b00EA68A1BA40096d825922AFf25570cC5bc69;\r\n    // address private designerAddress = 0xB1A37DE9227eB305eCAD81A6C0a10eBE36C50653;\r\n    // address private ownerAddress = 0x95b00EA68A1BA40096d825922AFf25570cC5bc69;\r\n\r\n    event OnePieceCreated(address to, uint256 indexed id);\r\n\r\n    modifier saleIsOpen {\r\n        if (_msgSender() != owner()) {\r\n            require(SALE_OPEN == true, \"SALES: Please wait a big longer before buying Captain Candy ;)\");\r\n        }\r\n        require(_totalSupply() <= MAX_ELEMENTS, \"SALES: Sale end\");\r\n\r\n        if (_msgSender() != owner()) {\r\n            require(!paused(), \"PAUSABLE: Paused\");\r\n        }\r\n        _;\r\n    }\r\n\r\n    constructor (string memory baseURI) ERC721(\"Captain Candy\", \"CC\") {\r\n        setBaseURI(baseURI);\r\n\r\n        _price = PRICE_PREMINT;\r\n        _maxElements = MAX_ELEMENTS_PREMINT;\r\n        _maxMint = MAX_MINT_PREMINT;\r\n    }\r\n\r\n    function mint(address payable _to, uint256[] memory _ids) public payable saleIsOpen {\r\n        uint256 total = _totalSupply();\r\n\r\n        if (_isPresale == true) {\r\n            require(_whitelist[_to] == true, \"PRESALE: Only registered customers can mint!\");\r\n        }\r\n\r\n        require(total + _ids.length <= _maxElements, \"MINT: Current count exceeds maximum element count.\");\r\n        require(total <= _maxElements, \"MINT: Please go to the Opensea to buy Captain Candy.\");\r\n        require(_ids.length <= _maxMint, \"MINT: Current count exceeds maximum mint count.\");\r\n\r\n        if (_to != owner()) {\r\n            require(msg.value >= price(_ids.length), \"MINT: Current value is below the sales price of Captain Candy\");\r\n        }\r\n\r\n        for (uint256 i = 0; i < _ids.length; i++) {\r\n            require(_isOccupiedId[_ids[i]] == false, \"MINT: Those ids already have been used for other customers\");\r\n        }\r\n\r\n        for (uint256 i = 0; i < _ids.length; i++) {\r\n            _mintAnElement(_to, _ids[i]);\r\n        }\r\n    }\r\n\r\n    function _mintAnElement(address payable _to, uint256 _id) private {\r\n        _tokenIdTracker.increment();\r\n        _safeMint(_to, _id);\r\n        _isOccupiedId[_id] = true;\r\n        _occupiedList.push(_id);\r\n\r\n        emit OnePieceCreated(_to, _id);\r\n    }\r\n\r\n    function startPreSale() public onlyOwner {\r\n        _isPresale = true;\r\n\r\n        SALE_OPEN = true;\r\n\r\n        _price = PRICE_PRESALE;\r\n        _maxElements = MAX_ELEMENTS_PRESALE + MAX_ELEMENTS_PREMINT;\r\n        _maxMint = MAX_MINT_PRESALE;\r\n    }\r\n\r\n    function startPublicSale() public onlyOwner {\r\n        _isPresale = false;\r\n\r\n        SALE_OPEN = true;\r\n\r\n        _price = PRICE;\r\n        _maxElements = MAX_ELEMENTS;\r\n        _maxMint = MAX_MINT;\r\n    }\r\n\r\n    function flipSaleState() public onlyOwner {\r\n        SALE_OPEN = !SALE_OPEN;\r\n    }\r\n\r\n    function addToWhitelist(address attender) public onlyOwner {\r\n        _whitelist[attender] = true;\r\n    }\r\n\r\n    function removeFromWhitelist(address attender) public onlyOwner {\r\n        _whitelist[attender] = false;\r\n    }\r\n\r\n    function setBaseURI(string memory baseURI) public onlyOwner {\r\n        baseTokenURI = baseURI;\r\n    }\r\n\r\n    function _baseURI() internal view virtual override returns (string memory) {\r\n        return baseTokenURI;\r\n    }\r\n\r\n    function price(uint256 _count) public view returns (uint256) {\r\n        return _price.mul(_count);\r\n    }\r\n\r\n    function _totalSupply() internal view returns (uint) {\r\n        return _tokenIdTracker.current();\r\n    }\r\n\r\n    function occupiedList() public view returns (uint256[] memory) {\r\n        return _occupiedList;\r\n    }\r\n\r\n    function maxMint() public view returns (uint256) {\r\n        return _maxMint;\r\n    }\r\n\r\n    function maxSales() public view returns (uint256) {\r\n        return _maxElements;\r\n    }\r\n\r\n    function maxSupply() public pure returns (uint256) {\r\n        return MAX_ELEMENTS;\r\n    }\r\n\r\n    function raised() public view returns (uint256) {\r\n        return address(this).balance;\r\n    }\r\n\r\n    function getTokenIdsOfWallet(address _owner) external view returns (uint256[] memory) {\r\n        uint256 tokenCount = balanceOf(_owner);\r\n\r\n        uint256[] memory tokensId = new uint256[](tokenCount);\r\n\r\n        for (uint256 i = 0; i < tokenCount; i++) {\r\n            tokensId[i] = tokenOfOwnerByIndex(_owner, i);\r\n        }\r\n\r\n        return tokensId;\r\n    }\r\n\r\n    function withdrawAll() public payable onlyOwner {\r\n        uint256 balance = address(this).balance;\r\n        require(balance > 0, \"WITHDRAW: No balance in contract\");\r\n\r\n        // // Withdraw 4% to developer Address.\r\n        // _widthdraw(developerAddress, balance.mul(4).div(10**2));\r\n        // // Withdraw 3.5% to designer Address.\r\n        // _widthdraw(designerAddress, balance.mul(35).div(10**3));\r\n        // // Withdraw 92.5% to owner Address.\r\n        // _widthdraw(ownerAddress, address(this).balance);\r\n        _widthdraw(owner(), address(this).balance);\r\n    }\r\n\r\n    function _widthdraw(address _address, uint256 _amount) private {\r\n        (bool success, ) = _address.call{value: _amount}(\"\");\r\n        require(success, \"WITHDRAW: Transfer failed.\");\r\n    }\r\n\r\n    function _beforeTokenTransfer(\r\n        address from,\r\n        address to,\r\n        uint256 tokenId\r\n    ) internal virtual override(ERC721, ERC721Enumerable, ERC721Pausable) {\r\n        super._beforeTokenTransfer(from, to, tokenId);\r\n    }\r\n\r\n    function supportsInterface(bytes4 interfaceId) public view virtual override(ERC721, ERC721Enumerable) returns (bool) {\r\n        return super.supportsInterface(interfaceId);\r\n    }\r\n}",
  "sourcePath": "F:\\Cory_Career\\Eugene\\Captain_Candy\\captain-candy-minting-website\\contracts\\CaptainCandy.sol",
  "compiler": {
    "name": "solc",
    "version": "0.8.7+commit.e28d00a7.Emscripten.clang"
  },
  "schemaVersion": "3.4.3",
  "updatedAt": "2021-10-28T19:44:16.476Z",
  "networkType": "ethereum",
  "devdoc": {
    "kind": "dev",
    "methods": {
      "approve(address,uint256)": {
        "details": "See {IERC721-approve}."
      },
      "balanceOf(address)": {
        "details": "See {IERC721-balanceOf}."
      },
      "burn(uint256)": {
        "details": "Burns `tokenId`. See {ERC721-_burn}. Requirements: - The caller must own `tokenId` or be an approved operator."
      },
      "getApproved(uint256)": {
        "details": "See {IERC721-getApproved}."
      },
      "isApprovedForAll(address,address)": {
        "details": "See {IERC721-isApprovedForAll}."
      },
      "name()": {
        "details": "See {IERC721Metadata-name}."
      },
      "owner()": {
        "details": "Returns the address of the current owner."
      },
      "ownerOf(uint256)": {
        "details": "See {IERC721-ownerOf}."
      },
      "paused()": {
        "details": "Returns true if the contract is paused, and false otherwise."
      },
      "renounceOwnership()": {
        "details": "Leaves the contract without owner. It will not be possible to call `onlyOwner` functions anymore. Can only be called by the current owner. NOTE: Renouncing ownership will leave the contract without an owner, thereby removing any functionality that is only available to the owner."
      },
      "safeTransferFrom(address,address,uint256)": {
        "details": "See {IERC721-safeTransferFrom}."
      },
      "safeTransferFrom(address,address,uint256,bytes)": {
        "details": "See {IERC721-safeTransferFrom}."
      },
      "setApprovalForAll(address,bool)": {
        "details": "See {IERC721-setApprovalForAll}."
      },
      "symbol()": {
        "details": "See {IERC721Metadata-symbol}."
      },
      "tokenByIndex(uint256)": {
        "details": "See {IERC721Enumerable-tokenByIndex}."
      },
      "tokenOfOwnerByIndex(address,uint256)": {
        "details": "See {IERC721Enumerable-tokenOfOwnerByIndex}."
      },
      "tokenURI(uint256)": {
        "details": "See {IERC721Metadata-tokenURI}."
      },
      "totalSupply()": {
        "details": "See {IERC721Enumerable-totalSupply}."
      },
      "transferFrom(address,address,uint256)": {
        "details": "See {IERC721-transferFrom}."
      },
      "transferOwnership(address)": {
        "details": "Transfers ownership of the contract to a new account (`newOwner`). Can only be called by the current owner."
      }
    },
    "version": 1
  },
  "userdoc": {
    "kind": "user",
    "methods": {},
    "version": 1
  }
}