{
  "contractName": "CaptainCandy",
  "abi": [
    {
      "inputs": [
        {
          "internalType": "string",
          "name": "baseURI",
          "type": "string"
        }
      ],
      "stateMutability": "nonpayable",
      "type": "constructor"
    },
    {
      "anonymous": false,
      "inputs": [
        {
          "indexed": true,
          "internalType": "address",
          "name": "owner",
          "type": "address"
        },
        {
          "indexed": true,
          "internalType": "address",
          "name": "approved",
          "type": "address"
        },
        {
          "indexed": true,
          "internalType": "uint256",
          "name": "tokenId",
          "type": "uint256"
        }
      ],
      "name": "Approval",
      "type": "event"
    },
    {
      "anonymous": false,
      "inputs": [
        {
          "indexed": true,
          "internalType": "address",
          "name": "owner",
          "type": "address"
        },
        {
          "indexed": true,
          "internalType": "address",
          "name": "operator",
          "type": "address"
        },
        {
          "indexed": false,
          "internalType": "bool",
          "name": "approved",
          "type": "bool"
        }
      ],
      "name": "ApprovalForAll",
      "type": "event"
    },
    {
      "anonymous": false,
      "inputs": [
        {
          "indexed": false,
          "internalType": "address",
          "name": "to",
          "type": "address"
        },
        {
          "indexed": true,
          "internalType": "uint256",
          "name": "id",
          "type": "uint256"
        }
      ],
      "name": "OnePieceCreated",
      "type": "event"
    },
    {
      "anonymous": false,
      "inputs": [
        {
          "indexed": true,
          "internalType": "address",
          "name": "previousOwner",
          "type": "address"
        },
        {
          "indexed": true,
          "internalType": "address",
          "name": "newOwner",
          "type": "address"
        }
      ],
      "name": "OwnershipTransferred",
      "type": "event"
    },
    {
      "anonymous": false,
      "inputs": [
        {
          "indexed": false,
          "internalType": "address",
          "name": "account",
          "type": "address"
        }
      ],
      "name": "Paused",
      "type": "event"
    },
    {
      "anonymous": false,
      "inputs": [
        {
          "indexed": true,
          "internalType": "address",
          "name": "from",
          "type": "address"
        },
        {
          "indexed": true,
          "internalType": "address",
          "name": "to",
          "type": "address"
        },
        {
          "indexed": true,
          "internalType": "uint256",
          "name": "tokenId",
          "type": "uint256"
        }
      ],
      "name": "Transfer",
      "type": "event"
    },
    {
      "anonymous": false,
      "inputs": [
        {
          "indexed": false,
          "internalType": "address",
          "name": "account",
          "type": "address"
        }
      ],
      "name": "Unpaused",
      "type": "event"
    },
    {
      "inputs": [],
      "name": "SALE_OPEN",
      "outputs": [
        {
          "internalType": "bool",
          "name": "",
          "type": "bool"
        }
      ],
      "stateMutability": "view",
      "type": "function",
      "constant": true
    },
    {
      "inputs": [
        {
          "internalType": "address",
          "name": "",
          "type": "address"
        }
      ],
      "name": "_whitelist",
      "outputs": [
        {
          "internalType": "bool",
          "name": "",
          "type": "bool"
        }
      ],
      "stateMutability": "view",
      "type": "function",
      "constant": true
    },
    {
      "inputs": [
        {
          "internalType": "address",
          "name": "to",
          "type": "address"
        },
        {
          "internalType": "uint256",
          "name": "tokenId",
          "type": "uint256"
        }
      ],
      "name": "approve",
      "outputs": [],
      "stateMutability": "nonpayable",
      "type": "function"
    },
    {
      "inputs": [
        {
          "internalType": "address",
          "name": "owner",
          "type": "address"
        }
      ],
      "name": "balanceOf",
      "outputs": [
        {
          "internalType": "uint256",
          "name": "",
          "type": "uint256"
        }
      ],
      "stateMutability": "view",
      "type": "function",
      "constant": true
    },
    {
      "inputs": [
        {
          "internalType": "uint256",
          "name": "tokenId",
          "type": "uint256"
        }
      ],
      "name": "burn",
      "outputs": [],
      "stateMutability": "nonpayable",
      "type": "function"
    },
    {
      "inputs": [
        {
          "internalType": "uint256",
          "name": "tokenId",
          "type": "uint256"
        }
      ],
      "name": "getApproved",
      "outputs": [
        {
          "internalType": "address",
          "name": "",
          "type": "address"
        }
      ],
      "stateMutability": "view",
      "type": "function",
      "constant": true
    },
    {
      "inputs": [
        {
          "internalType": "address",
          "name": "owner",
          "type": "address"
        },
        {
          "internalType": "address",
          "name": "operator",
          "type": "address"
        }
      ],
      "name": "isApprovedForAll",
      "outputs": [
        {
          "internalType": "bool",
          "name": "",
          "type": "bool"
        }
      ],
      "stateMutability": "view",
      "type": "function",
      "constant": true
    },
    {
      "inputs": [],
      "name": "name",
      "outputs": [
        {
          "internalType": "string",
          "name": "",
          "type": "string"
        }
      ],
      "stateMutability": "view",
      "type": "function",
      "constant": true
    },
    {
      "inputs": [],
      "name": "owner",
      "outputs": [
        {
          "internalType": "address",
          "name": "",
          "type": "address"
        }
      ],
      "stateMutability": "view",
      "type": "function",
      "constant": true
    },
    {
      "inputs": [
        {
          "internalType": "uint256",
          "name": "tokenId",
          "type": "uint256"
        }
      ],
      "name": "ownerOf",
      "outputs": [
        {
          "internalType": "address",
          "name": "",
          "type": "address"
        }
      ],
      "stateMutability": "view",
      "type": "function",
      "constant": true
    },
    {
      "inputs": [],
      "name": "paused",
      "outputs": [
        {
          "internalType": "bool",
          "name": "",
          "type": "bool"
        }
      ],
      "stateMutability": "view",
      "type": "function",
      "constant": true
    },
    {
      "inputs": [],
      "name": "renounceOwnership",
      "outputs": [],
      "stateMutability": "nonpayable",
      "type": "function"
    },
    {
      "inputs": [
        {
          "internalType": "address",
          "name": "from",
          "type": "address"
        },
        {
          "internalType": "address",
          "name": "to",
          "type": "address"
        },
        {
          "internalType": "uint256",
          "name": "tokenId",
          "type": "uint256"
        }
      ],
      "name": "safeTransferFrom",
      "outputs": [],
      "stateMutability": "nonpayable",
      "type": "function"
    },
    {
      "inputs": [
        {
          "internalType": "address",
          "name": "from",
          "type": "address"
        },
        {
          "internalType": "address",
          "name": "to",
          "type": "address"
        },
        {
          "internalType": "uint256",
          "name": "tokenId",
          "type": "uint256"
        },
        {
          "internalType": "bytes",
          "name": "_data",
          "type": "bytes"
        }
      ],
      "name": "safeTransferFrom",
      "outputs": [],
      "stateMutability": "nonpayable",
      "type": "function"
    },
    {
      "inputs": [
        {
          "internalType": "address",
          "name": "operator",
          "type": "address"
        },
        {
          "internalType": "bool",
          "name": "approved",
          "type": "bool"
        }
      ],
      "name": "setApprovalForAll",
      "outputs": [],
      "stateMutability": "nonpayable",
      "type": "function"
    },
    {
      "inputs": [],
      "name": "symbol",
      "outputs": [
        {
          "internalType": "string",
          "name": "",
          "type": "string"
        }
      ],
      "stateMutability": "view",
      "type": "function",
      "constant": true
    },
    {
      "inputs": [
        {
          "internalType": "uint256",
          "name": "index",
          "type": "uint256"
        }
      ],
      "name": "tokenByIndex",
      "outputs": [
        {
          "internalType": "uint256",
          "name": "",
          "type": "uint256"
        }
      ],
      "stateMutability": "view",
      "type": "function",
      "constant": true
    },
    {
      "inputs": [
        {
          "internalType": "address",
          "name": "owner",
          "type": "address"
        },
        {
          "internalType": "uint256",
          "name": "index",
          "type": "uint256"
        }
      ],
      "name": "tokenOfOwnerByIndex",
      "outputs": [
        {
          "internalType": "uint256",
          "name": "",
          "type": "uint256"
        }
      ],
      "stateMutability": "view",
      "type": "function",
      "constant": true
    },
    {
      "inputs": [
        {
          "internalType": "uint256",
          "name": "tokenId",
          "type": "uint256"
        }
      ],
      "name": "tokenURI",
      "outputs": [
        {
          "internalType": "string",
          "name": "",
          "type": "string"
        }
      ],
      "stateMutability": "view",
      "type": "function",
      "constant": true
    },
    {
      "inputs": [],
      "name": "totalSupply",
      "outputs": [
        {
          "internalType": "uint256",
          "name": "",
          "type": "uint256"
        }
      ],
      "stateMutability": "view",
      "type": "function",
      "constant": true
    },
    {
      "inputs": [
        {
          "internalType": "address",
          "name": "from",
          "type": "address"
        },
        {
          "internalType": "address",
          "name": "to",
          "type": "address"
        },
        {
          "internalType": "uint256",
          "name": "tokenId",
          "type": "uint256"
        }
      ],
      "name": "transferFrom",
      "outputs": [],
      "stateMutability": "nonpayable",
      "type": "function"
    },
    {
      "inputs": [
        {
          "internalType": "address",
          "name": "newOwner",
          "type": "address"
        }
      ],
      "name": "transferOwnership",
      "outputs": [],
      "stateMutability": "nonpayable",
      "type": "function"
    },
    {
      "inputs": [
        {
          "internalType": "address payable",
          "name": "_to",
          "type": "address"
        },
        {
          "internalType": "uint256[]",
          "name": "_ids",
          "type": "uint256[]"
        }
      ],
      "name": "mint",
      "outputs": [],
      "stateMutability": "payable",
      "type": "function",
      "payable": true
    },
    {
      "inputs": [],
      "name": "startPreSale",
      "outputs": [],
      "stateMutability": "nonpayable",
      "type": "function"
    },
    {
      "inputs": [],
      "name": "startPublicSale",
      "outputs": [],
      "stateMutability": "nonpayable",
      "type": "function"
    },
    {
      "inputs": [],
      "name": "flipSaleState",
      "outputs": [],
      "stateMutability": "nonpayable",
      "type": "function"
    },
    {
      "inputs": [
        {
          "internalType": "address",
          "name": "attender",
          "type": "address"
        }
      ],
      "name": "addToWhitelist",
      "outputs": [],
      "stateMutability": "nonpayable",
      "type": "function"
    },
    {
      "inputs": [
        {
          "internalType": "address",
          "name": "attender",
          "type": "address"
        }
      ],
      "name": "removeFromWhitelist",
      "outputs": [],
      "stateMutability": "nonpayable",
      "type": "function"
    },
    {
      "inputs": [
        {
          "internalType": "string",
          "name": "baseURI",
          "type": "string"
        }
      ],
      "name": "setBaseURI",
      "outputs": [],
      "stateMutability": "nonpayable",
      "type": "function"
    },
    {
      "inputs": [
        {
          "internalType": "uint256",
          "name": "_count",
          "type": "uint256"
        }
      ],
      "name": "price",
      "outputs": [
        {
          "internalType": "uint256",
          "name": "",
          "type": "uint256"
        }
      ],
      "stateMutability": "view",
      "type": "function",
      "constant": true
    },
    {
      "inputs": [],
      "name": "occupiedList",
      "outputs": [
        {
          "internalType": "uint256[]",
          "name": "",
          "type": "uint256[]"
        }
      ],
      "stateMutability": "view",
      "type": "function",
      "constant": true
    },
    {
      "inputs": [],
      "name": "maxMint",
      "outputs": [
        {
          "internalType": "uint256",
          "name": "",
          "type": "uint256"
        }
      ],
      "stateMutability": "view",
      "type": "function",
      "constant": true
    },
    {
      "inputs": [],
      "name": "maxSales",
      "outputs": [
        {
          "internalType": "uint256",
          "name": "",
          "type": "uint256"
        }
      ],
      "stateMutability": "view",
      "type": "function",
      "constant": true
    },
    {
      "inputs": [],
      "name": "maxSupply",
      "outputs": [
        {
          "internalType": "uint256",
          "name": "",
          "type": "uint256"
        }
      ],
      "stateMutability": "pure",
      "type": "function",
      "constant": true
    },
    {
      "inputs": [],
      "name": "raised",
      "outputs": [
        {
          "internalType": "uint256",
          "name": "",
          "type": "uint256"
        }
      ],
      "stateMutability": "view",
      "type": "function",
      "constant": true
    },
    {
      "inputs": [
        {
          "internalType": "address",
          "name": "_owner",
          "type": "address"
        }
      ],
      "name": "getTokenIdsOfWallet",
      "outputs": [
        {
          "internalType": "uint256[]",
          "name": "",
          "type": "uint256[]"
        }
      ],
      "stateMutability": "view",
      "type": "function",
      "constant": true
    },
    {
      "inputs": [],
      "name": "withdrawAll",
      "outputs": [],
      "stateMutability": "payable",
      "type": "function",
      "payable": true
    },
    {
      "inputs": [
        {
          "internalType": "bytes4",
          "name": "interfaceId",
          "type": "bytes4"
        }
      ],
      "name": "supportsInterface",
      "outputs": [
        {
          "internalType": "bool",
          "name": "",
          "type": "bool"
        }
      ],
      "stateMutability": "view",
      "type": "function",
      "constant": true
    }
  ],
  "bytecode": "0x60806040526000600c60006101000a81548160ff02191690831515021790555073dea5e36dc33a3aed5ca275e463edd283f680d1c6601560006101000a81548173ffffffffffffffffffffffffffffffffffffffff021916908373ffffffffffffffffffffffffffffffffffffffff16021790555073b1a37de9227eb305ecad81a6c0a10ebe36c50653601660006101000a81548173ffffffffffffffffffffffffffffffffffffffff021916908373ffffffffffffffffffffffffffffffffffffffff16021790555073e3f91d76f7c24048d080d392e0587439f26bae71601760006101000a81548173ffffffffffffffffffffffffffffffffffffffff021916908373ffffffffffffffffffffffffffffffffffffffff1602179055503480156200012b57600080fd5b5060405162005b9938038062005b9983398181016040528101906200015191906200052d565b6040518060400160405280600d81526020017f4361707461696e2043616e6479000000000000000000000000000000000000008152506040518060400160405280600281526020017f43430000000000000000000000000000000000000000000000000000000000008152508160009080519060200190620001d5929190620003ff565b508060019080519060200190620001ee929190620003ff565b50505062000211620002056200025c60201b60201c565b6200026460201b60201c565b6000600a60146101000a81548160ff0219169083151502179055506200023d816200032a60201b60201c565b6000600d819055506064600e819055506064600f819055505062000785565b600033905090565b6000600a60009054906101000a900473ffffffffffffffffffffffffffffffffffffffff16905081600a60006101000a81548173ffffffffffffffffffffffffffffffffffffffff021916908373ffffffffffffffffffffffffffffffffffffffff1602179055508173ffffffffffffffffffffffffffffffffffffffff168173ffffffffffffffffffffffffffffffffffffffff167f8be0079c531659141344cd1fd0a4f28419497f9722a3daafe3b4186f6b6457e060405160405180910390a35050565b6200033a6200025c60201b60201c565b73ffffffffffffffffffffffffffffffffffffffff1662000360620003d560201b60201c565b73ffffffffffffffffffffffffffffffffffffffff1614620003b9576040517f08c379a0000000000000000000000000000000000000000000000000000000008152600401620003b090620005a5565b60405180910390fd5b8060149080519060200190620003d1929190620003ff565b5050565b6000600a60009054906101000a900473ffffffffffffffffffffffffffffffffffffffff16905090565b8280546200040d906200066d565b90600052602060002090601f0160209004810192826200043157600085556200047d565b82601f106200044c57805160ff19168380011785556200047d565b828001600101855582156200047d579182015b828111156200047c5782518255916020019190600101906200045f565b5b5090506200048c919062000490565b5090565b5b80821115620004ab57600081600090555060010162000491565b5090565b6000620004c6620004c084620005f0565b620005c7565b905082815260208101848484011115620004e557620004e46200073c565b5b620004f284828562000637565b509392505050565b600082601f83011262000512576200051162000737565b5b815162000524848260208601620004af565b91505092915050565b60006020828403121562000546576200054562000746565b5b600082015167ffffffffffffffff81111562000567576200056662000741565b5b6200057584828501620004fa565b91505092915050565b60006200058d60208362000626565b91506200059a826200075c565b602082019050919050565b60006020820190508181036000830152620005c0816200057e565b9050919050565b6000620005d3620005e6565b9050620005e18282620006a3565b919050565b6000604051905090565b600067ffffffffffffffff8211156200060e576200060d62000708565b5b62000619826200074b565b9050602081019050919050565b600082825260208201905092915050565b60005b83811015620006575780820151818401526020810190506200063a565b8381111562000667576000848401525b50505050565b600060028204905060018216806200068657607f821691505b602082108114156200069d576200069c620006d9565b5b50919050565b620006ae826200074b565b810181811067ffffffffffffffff82111715620006d057620006cf62000708565b5b80604052505050565b7f4e487b7100000000000000000000000000000000000000000000000000000000600052602260045260246000fd5b7f4e487b7100000000000000000000000000000000000000000000000000000000600052604160045260246000fd5b600080fd5b600080fd5b600080fd5b600080fd5b6000601f19601f8301169050919050565b7f4f776e61626c653a2063616c6c6572206973206e6f7420746865206f776e6572600082015250565b61540480620007956000396000f3fe6080604052600436106102255760003560e01c80637501f74111610123578063bfdf9b6e116100ab578063e43252d71161006f578063e43252d7146107c7578063e985e9c5146107f0578063eef625081461082d578063f0ea4bfc1461086a578063f2fde38b1461089557610225565b8063bfdf9b6e146106db578063c87b56dd14610706578063cfdb63ac14610743578063d5abeb0114610780578063de836ebd146107ab57610225565b80638e26d2aa116100f25780638e26d2aa1461060857806395d89b4114610633578063a22cb4651461065e578063a769cba914610687578063b88d4fde146106b257610225565b80637501f7411461057f578063853828b6146105aa5780638ab1d681146105b45780638da5cb5b146105dd57610225565b806334918dfd116101b157806355f804b31161017557806355f804b31461049a5780635c975abb146104c35780636352211e146104ee57806370a082311461052b578063715018a61461056857610225565b806334918dfd146103dd57806342842e0e146103f457806342966c681461041d5780634f6ccce71461044657806355dd574c1461048357610225565b80630c1c972a116101f85780630c1c972a146102f857806318160ddd1461030f57806323b872dd1461033a57806326a49e37146103635780632f745c59146103a057610225565b806301ffc9a71461022a57806306fdde0314610267578063081812fc14610292578063095ea7b3146102cf575b600080fd5b34801561023657600080fd5b50610251600480360381019061024c9190613989565b6108be565b60405161025e9190614128565b60405180910390f35b34801561027357600080fd5b5061027c6108d0565b6040516102899190614143565b60405180910390f35b34801561029e57600080fd5b506102b960048036038101906102b49190613a2c565b610962565b6040516102c69190614084565b60405180910390f35b3480156102db57600080fd5b506102f660048036038101906102f19190613949565b6109e7565b005b34801561030457600080fd5b5061030d610aff565b005b34801561031b57600080fd5b50610324610bd4565b6040516103319190614545565b60405180910390f35b34801561034657600080fd5b50610361600480360381019061035c9190613833565b610be1565b005b34801561036f57600080fd5b5061038a60048036038101906103859190613a2c565b610c41565b6040516103979190614545565b60405180910390f35b3480156103ac57600080fd5b506103c760048036038101906103c29190613949565b610c5f565b6040516103d49190614545565b60405180910390f35b3480156103e957600080fd5b506103f2610d04565b005b34801561040057600080fd5b5061041b60048036038101906104169190613833565b610dac565b005b34801561042957600080fd5b50610444600480360381019061043f9190613a2c565b610dcc565b005b34801561045257600080fd5b5061046d60048036038101906104689190613a2c565b610e28565b60405161047a9190614545565b60405180910390f35b34801561048f57600080fd5b50610498610e99565b005b3480156104a657600080fd5b506104c160048036038101906104bc91906139e3565b610f7a565b005b3480156104cf57600080fd5b506104d8611010565b6040516104e59190614128565b60405180910390f35b3480156104fa57600080fd5b5061051560048036038101906105109190613a2c565b611027565b6040516105229190614084565b60405180910390f35b34801561053757600080fd5b50610552600480360381019061054d919061376a565b6110d9565b60405161055f9190614545565b60405180910390f35b34801561057457600080fd5b5061057d611191565b005b34801561058b57600080fd5b50610594611219565b6040516105a19190614545565b60405180910390f35b6105b2611223565b005b3480156105c057600080fd5b506105db60048036038101906105d6919061376a565b6113bb565b005b3480156105e957600080fd5b506105f2611492565b6040516105ff9190614084565b60405180910390f35b34801561061457600080fd5b5061061d6114bc565b60405161062a9190614128565b60405180910390f35b34801561063f57600080fd5b506106486114cf565b6040516106559190614143565b60405180910390f35b34801561066a57600080fd5b5061068560048036038101906106809190613909565b611561565b005b34801561069357600080fd5b5061069c6116e2565b6040516106a99190614106565b60405180910390f35b3480156106be57600080fd5b506106d960048036038101906106d49190613886565b61173a565b005b3480156106e757600080fd5b506106f061179c565b6040516106fd9190614545565b60405180910390f35b34801561071257600080fd5b5061072d60048036038101906107289190613a2c565b6117a6565b60405161073a9190614143565b60405180910390f35b34801561074f57600080fd5b5061076a6004803603810190610765919061376a565b61184d565b6040516107779190614128565b60405180910390f35b34801561078c57600080fd5b5061079561186d565b6040516107a29190614545565b60405180910390f35b6107c560048036038101906107c09190613797565b611877565b005b3480156107d357600080fd5b506107ee60048036038101906107e9919061376a565b611cee565b005b3480156107fc57600080fd5b50610817600480360381019061081291906137f3565b611dc5565b6040516108249190614128565b60405180910390f35b34801561083957600080fd5b50610854600480360381019061084f919061376a565b611e59565b6040516108619190614106565b60405180910390f35b34801561087657600080fd5b5061087f611f07565b60405161088c9190614545565b60405180910390f35b3480156108a157600080fd5b506108bc60048036038101906108b7919061376a565b611f0f565b005b60006108c982612007565b9050919050565b6060600080546108df906148ad565b80601f016020809104026020016040519081016040528092919081815260200182805461090b906148ad565b80156109585780601f1061092d57610100808354040283529160200191610958565b820191906000526020600020905b81548152906001019060200180831161093b57829003601f168201915b5050505050905090565b600061096d82612081565b6109ac576040517f08c379a00000000000000000000000000000000000000000000000000000000081526004016109a3906143a5565b60405180910390fd5b6004600083815260200190815260200160002060009054906101000a900473ffffffffffffffffffffffffffffffffffffffff169050919050565b60006109f282611027565b90508073ffffffffffffffffffffffffffffffffffffffff168373ffffffffffffffffffffffffffffffffffffffff161415610a63576040517f08c379a0000000000000000000000000000000000000000000000000000000008152600401610a5a90614465565b60405180910390fd5b8073ffffffffffffffffffffffffffffffffffffffff16610a826120ed565b73ffffffffffffffffffffffffffffffffffffffff161480610ab15750610ab081610aab6120ed565b611dc5565b5b610af0576040517f08c379a0000000000000000000000000000000000000000000000000000000008152600401610ae790614325565b60405180910390fd5b610afa83836120f5565b505050565b610b076120ed565b73ffffffffffffffffffffffffffffffffffffffff16610b25611492565b73ffffffffffffffffffffffffffffffffffffffff1614610b7b576040517f08c379a0000000000000000000000000000000000000000000000000000000008152600401610b72906143c5565b60405180910390fd5b6000601360006101000a81548160ff0219169083151502179055506001600c60006101000a81548160ff021916908315150217905550680ad78ebc5ac6200000600d81905550612710600e819055506014600f81905550565b6000600880549050905090565b610bf2610bec6120ed565b826121ae565b610c31576040517f08c379a0000000000000000000000000000000000000000000000000000000008152600401610c28906144c5565b60405180910390fd5b610c3c83838361228c565b505050565b6000610c5882600d546124e890919063ffffffff16565b9050919050565b6000610c6a836110d9565b8210610cab576040517f08c379a0000000000000000000000000000000000000000000000000000000008152600401610ca2906141a5565b60405180910390fd5b600660008473ffffffffffffffffffffffffffffffffffffffff1673ffffffffffffffffffffffffffffffffffffffff168152602001908152602001600020600083815260200190815260200160002054905092915050565b610d0c6120ed565b73ffffffffffffffffffffffffffffffffffffffff16610d2a611492565b73ffffffffffffffffffffffffffffffffffffffff1614610d80576040517f08c379a0000000000000000000000000000000000000000000000000000000008152600401610d77906143c5565b60405180910390fd5b600c60009054906101000a900460ff1615600c60006101000a81548160ff021916908315150217905550565b610dc78383836040518060200160405280600081525061173a565b505050565b610ddd610dd76120ed565b826121ae565b610e1c576040517f08c379a0000000000000000000000000000000000000000000000000000000008152600401610e1390614505565b60405180910390fd5b610e25816124fe565b50565b6000610e32610bd4565b8210610e73576040517f08c379a0000000000000000000000000000000000000000000000000000000008152600401610e6a906144e5565b60405180910390fd5b60088281548110610e8757610e86614a46565b5b90600052602060002001549050919050565b610ea16120ed565b73ffffffffffffffffffffffffffffffffffffffff16610ebf611492565b73ffffffffffffffffffffffffffffffffffffffff1614610f15576040517f08c379a0000000000000000000000000000000000000000000000000000000008152600401610f0c906143c5565b60405180910390fd5b6001601360006101000a81548160ff0219169083151502179055506001600c60006101000a81548160ff021916908315150217905550680821ab0d4414980000600d8190555060646103e8610f6a919061469a565b600e819055506005600f81905550565b610f826120ed565b73ffffffffffffffffffffffffffffffffffffffff16610fa0611492565b73ffffffffffffffffffffffffffffffffffffffff1614610ff6576040517f08c379a0000000000000000000000000000000000000000000000000000000008152600401610fed906143c5565b60405180910390fd5b806014908051906020019061100c9291906134cb565b5050565b6000600a60149054906101000a900460ff16905090565b6000806002600084815260200190815260200160002060009054906101000a900473ffffffffffffffffffffffffffffffffffffffff169050600073ffffffffffffffffffffffffffffffffffffffff168173ffffffffffffffffffffffffffffffffffffffff1614156110d0576040517f08c379a00000000000000000000000000000000000000000000000000000000081526004016110c790614365565b60405180910390fd5b80915050919050565b60008073ffffffffffffffffffffffffffffffffffffffff168273ffffffffffffffffffffffffffffffffffffffff16141561114a576040517f08c379a000000000000000000000000000000000000000000000000000000000815260040161114190614345565b60405180910390fd5b600360008373ffffffffffffffffffffffffffffffffffffffff1673ffffffffffffffffffffffffffffffffffffffff168152602001908152602001600020549050919050565b6111996120ed565b73ffffffffffffffffffffffffffffffffffffffff166111b7611492565b73ffffffffffffffffffffffffffffffffffffffff161461120d576040517f08c379a0000000000000000000000000000000000000000000000000000000008152600401611204906143c5565b60405180910390fd5b611217600061260f565b565b6000600f54905090565b61122b6120ed565b73ffffffffffffffffffffffffffffffffffffffff16611249611492565b73ffffffffffffffffffffffffffffffffffffffff161461129f576040517f08c379a0000000000000000000000000000000000000000000000000000000008152600401611296906143c5565b60405180910390fd5b6000479050600081116112e7576040517f08c379a00000000000000000000000000000000000000000000000000000000081526004016112de90614445565b60405180910390fd5b611339601560009054906101000a900473ffffffffffffffffffffffffffffffffffffffff1661133460646113266004866124e890919063ffffffff16565b6126d590919063ffffffff16565b6126eb565b61138c601660009054906101000a900473ffffffffffffffffffffffffffffffffffffffff166113876103e86113796023866124e890919063ffffffff16565b6126d590919063ffffffff16565b6126eb565b6113b8601760009054906101000a900473ffffffffffffffffffffffffffffffffffffffff16476126eb565b50565b6113c36120ed565b73ffffffffffffffffffffffffffffffffffffffff166113e1611492565b73ffffffffffffffffffffffffffffffffffffffff1614611437576040517f08c379a000000000000000000000000000000000000000000000000000000000815260040161142e906143c5565b60405180910390fd5b6000601260008373ffffffffffffffffffffffffffffffffffffffff1673ffffffffffffffffffffffffffffffffffffffff16815260200190815260200160002060006101000a81548160ff02191690831515021790555050565b6000600a60009054906101000a900473ffffffffffffffffffffffffffffffffffffffff16905090565b600c60009054906101000a900460ff1681565b6060600180546114de906148ad565b80601f016020809104026020016040519081016040528092919081815260200182805461150a906148ad565b80156115575780601f1061152c57610100808354040283529160200191611557565b820191906000526020600020905b81548152906001019060200180831161153a57829003601f168201915b5050505050905090565b6115696120ed565b73ffffffffffffffffffffffffffffffffffffffff168273ffffffffffffffffffffffffffffffffffffffff1614156115d7576040517f08c379a00000000000000000000000000000000000000000000000000000000081526004016115ce906142c5565b60405180910390fd5b80600560006115e46120ed565b73ffffffffffffffffffffffffffffffffffffffff1673ffffffffffffffffffffffffffffffffffffffff16815260200190815260200160002060008473ffffffffffffffffffffffffffffffffffffffff1673ffffffffffffffffffffffffffffffffffffffff16815260200190815260200160002060006101000a81548160ff0219169083151502179055508173ffffffffffffffffffffffffffffffffffffffff166116916120ed565b73ffffffffffffffffffffffffffffffffffffffff167f17307eab39ab6107e8899845ad3d59bd9653f200f220920489ca2b5937696c31836040516116d69190614128565b60405180910390a35050565b6060601180548060200260200160405190810160405280929190818152602001828054801561173057602002820191906000526020600020905b81548152602001906001019080831161171c575b5050505050905090565b61174b6117456120ed565b836121ae565b61178a576040517f08c379a0000000000000000000000000000000000000000000000000000000008152600401611781906144c5565b60405180910390fd5b6117968484848461279c565b50505050565b6000600e54905090565b60606117b182612081565b6117f0576040517f08c379a00000000000000000000000000000000000000000000000000000000081526004016117e790614405565b60405180910390fd5b60006117fa6127f8565b9050600081511161181a5760405180602001604052806000815250611845565b806118248461288a565b604051602001611835929190614040565b6040516020818303038152906040525b915050919050565b60126020528060005260406000206000915054906101000a900460ff1681565b6000612710905090565b61187f611492565b73ffffffffffffffffffffffffffffffffffffffff1661189d6120ed565b73ffffffffffffffffffffffffffffffffffffffff161461190f5760011515600c60009054906101000a900460ff1615151461190e576040517f08c379a000000000000000000000000000000000000000000000000000000000815260040161190590614485565b60405180910390fd5b5b61271061191a6129eb565b111561195b576040517f08c379a000000000000000000000000000000000000000000000000000000000815260040161195290614525565b60405180910390fd5b611963611492565b73ffffffffffffffffffffffffffffffffffffffff166119816120ed565b73ffffffffffffffffffffffffffffffffffffffff16146119e5576119a4611010565b156119e4576040517f08c379a00000000000000000000000000000000000000000000000000000000081526004016119db90614205565b60405180910390fd5b5b60006119ef6129eb565b905060011515601360009054906101000a900460ff1615151415611aa15760011515601260008573ffffffffffffffffffffffffffffffffffffffff1673ffffffffffffffffffffffffffffffffffffffff16815260200190815260200160002060009054906101000a900460ff16151514611aa0576040517f08c379a0000000000000000000000000000000000000000000000000000000008152600401611a9790614185565b60405180910390fd5b5b600e54825182611ab1919061469a565b1115611af2576040517f08c379a0000000000000000000000000000000000000000000000000000000008152600401611ae990614225565b60405180910390fd5b600e54811115611b37576040517f08c379a0000000000000000000000000000000000000000000000000000000008152600401611b2e906141e5565b60405180910390fd5b600f5482511115611b7d576040517f08c379a0000000000000000000000000000000000000000000000000000000008152600401611b74906144a5565b60405180910390fd5b611b85611492565b73ffffffffffffffffffffffffffffffffffffffff168373ffffffffffffffffffffffffffffffffffffffff1614611c0457611bc18251610c41565b341015611c03576040517f08c379a0000000000000000000000000000000000000000000000000000000008152600401611bfa906142e5565b60405180910390fd5b5b60005b8251811015611ca4576000151560106000858481518110611c2b57611c2a614a46565b5b6020026020010151815260200190815260200160002060009054906101000a900460ff16151514611c91576040517f08c379a0000000000000000000000000000000000000000000000000000000008152600401611c8890614425565b60405180910390fd5b8080611c9c90614910565b915050611c07565b5060005b8251811015611ce857611cd584848381518110611cc857611cc7614a46565b5b60200260200101516129fc565b8080611ce090614910565b915050611ca8565b50505050565b611cf66120ed565b73ffffffffffffffffffffffffffffffffffffffff16611d14611492565b73ffffffffffffffffffffffffffffffffffffffff1614611d6a576040517f08c379a0000000000000000000000000000000000000000000000000000000008152600401611d61906143c5565b60405180910390fd5b6001601260008373ffffffffffffffffffffffffffffffffffffffff1673ffffffffffffffffffffffffffffffffffffffff16815260200190815260200160002060006101000a81548160ff02191690831515021790555050565b6000600560008473ffffffffffffffffffffffffffffffffffffffff1673ffffffffffffffffffffffffffffffffffffffff16815260200190815260200160002060008373ffffffffffffffffffffffffffffffffffffffff1673ffffffffffffffffffffffffffffffffffffffff16815260200190815260200160002060009054906101000a900460ff16905092915050565b60606000611e66836110d9565b905060008167ffffffffffffffff811115611e8457611e83614a75565b5b604051908082528060200260200182016040528015611eb25781602001602082028036833780820191505090505b50905060005b82811015611efc57611eca8582610c5f565b828281518110611edd57611edc614a46565b5b6020026020010181815250508080611ef490614910565b915050611eb8565b508092505050919050565b600047905090565b611f176120ed565b73ffffffffffffffffffffffffffffffffffffffff16611f35611492565b73ffffffffffffffffffffffffffffffffffffffff1614611f8b576040517f08c379a0000000000000000000000000000000000000000000000000000000008152600401611f82906143c5565b60405180910390fd5b600073ffffffffffffffffffffffffffffffffffffffff168173ffffffffffffffffffffffffffffffffffffffff161415611ffb576040517f08c379a0000000000000000000000000000000000000000000000000000000008152600401611ff290614245565b60405180910390fd5b6120048161260f565b50565b60007f780e9d63000000000000000000000000000000000000000000000000000000007bffffffffffffffffffffffffffffffffffffffffffffffffffffffff1916827bffffffffffffffffffffffffffffffffffffffffffffffffffffffff1916148061207a575061207982612aa1565b5b9050919050565b60008073ffffffffffffffffffffffffffffffffffffffff166002600084815260200190815260200160002060009054906101000a900473ffffffffffffffffffffffffffffffffffffffff1673ffffffffffffffffffffffffffffffffffffffff1614159050919050565b600033905090565b816004600083815260200190815260200160002060006101000a81548173ffffffffffffffffffffffffffffffffffffffff021916908373ffffffffffffffffffffffffffffffffffffffff160217905550808273ffffffffffffffffffffffffffffffffffffffff1661216883611027565b73ffffffffffffffffffffffffffffffffffffffff167f8c5be1e5ebec7d5bd14f71427d1e84f3dd0314c0f7b2291e5b200ac8c7c3b92560405160405180910390a45050565b60006121b982612081565b6121f8576040517f08c379a00000000000000000000000000000000000000000000000000000000081526004016121ef90614305565b60405180910390fd5b600061220383611027565b90508073ffffffffffffffffffffffffffffffffffffffff168473ffffffffffffffffffffffffffffffffffffffff16148061227257508373ffffffffffffffffffffffffffffffffffffffff1661225a84610962565b73ffffffffffffffffffffffffffffffffffffffff16145b8061228357506122828185611dc5565b5b91505092915050565b8273ffffffffffffffffffffffffffffffffffffffff166122ac82611027565b73ffffffffffffffffffffffffffffffffffffffff1614612302576040517f08c379a00000000000000000000000000000000000000000000000000000000081526004016122f9906143e5565b60405180910390fd5b600073ffffffffffffffffffffffffffffffffffffffff168273ffffffffffffffffffffffffffffffffffffffff161415612372576040517f08c379a0000000000000000000000000000000000000000000000000000000008152600401612369906142a5565b60405180910390fd5b61237d838383612b83565b6123886000826120f5565b6001600360008573ffffffffffffffffffffffffffffffffffffffff1673ffffffffffffffffffffffffffffffffffffffff16815260200190815260200160002060008282546123d8919061477b565b925050819055506001600360008473ffffffffffffffffffffffffffffffffffffffff1673ffffffffffffffffffffffffffffffffffffffff168152602001908152602001600020600082825461242f919061469a565b92505081905550816002600083815260200190815260200160002060006101000a81548173ffffffffffffffffffffffffffffffffffffffff021916908373ffffffffffffffffffffffffffffffffffffffff160217905550808273ffffffffffffffffffffffffffffffffffffffff168473ffffffffffffffffffffffffffffffffffffffff167fddf252ad1be2c89b69c2b068fc378daa952ba7f163c4a11628f55a4df523b3ef60405160405180910390a4505050565b600081836124f69190614721565b905092915050565b600061250982611027565b905061251781600084612b83565b6125226000836120f5565b6001600360008373ffffffffffffffffffffffffffffffffffffffff1673ffffffffffffffffffffffffffffffffffffffff1681526020019081526020016000206000828254612572919061477b565b925050819055506002600083815260200190815260200160002060006101000a81549073ffffffffffffffffffffffffffffffffffffffff021916905581600073ffffffffffffffffffffffffffffffffffffffff168273ffffffffffffffffffffffffffffffffffffffff167fddf252ad1be2c89b69c2b068fc378daa952ba7f163c4a11628f55a4df523b3ef60405160405180910390a45050565b6000600a60009054906101000a900473ffffffffffffffffffffffffffffffffffffffff16905081600a60006101000a81548173ffffffffffffffffffffffffffffffffffffffff021916908373ffffffffffffffffffffffffffffffffffffffff1602179055508173ffffffffffffffffffffffffffffffffffffffff168173ffffffffffffffffffffffffffffffffffffffff167f8be0079c531659141344cd1fd0a4f28419497f9722a3daafe3b4186f6b6457e060405160405180910390a35050565b600081836126e391906146f0565b905092915050565b60008273ffffffffffffffffffffffffffffffffffffffff16826040516127119061406f565b60006040518083038185875af1925050503d806000811461274e576040519150601f19603f3d011682016040523d82523d6000602084013e612753565b606091505b5050905080612797576040517f08c379a000000000000000000000000000000000000000000000000000000000815260040161278e90614285565b60405180910390fd5b505050565b6127a784848461228c565b6127b384848484612b93565b6127f2576040517f08c379a00000000000000000000000000000000000000000000000000000000081526004016127e9906141c5565b60405180910390fd5b50505050565b606060148054612807906148ad565b80601f0160208091040260200160405190810160405280929190818152602001828054612833906148ad565b80156128805780601f1061285557610100808354040283529160200191612880565b820191906000526020600020905b81548152906001019060200180831161286357829003601f168201915b5050505050905090565b606060008214156128d2576040518060400160405280600181526020017f300000000000000000000000000000000000000000000000000000000000000081525090506129e6565b600082905060005b600082146129045780806128ed90614910565b915050600a826128fd91906146f0565b91506128da565b60008167ffffffffffffffff8111156129205761291f614a75565b5b6040519080825280601f01601f1916602001820160405280156129525781602001600182028036833780820191505090505b5090505b600085146129df5760018261296b919061477b565b9150600a8561297a9190614959565b6030612986919061469a565b60f81b81838151811061299c5761299b614a46565b5b60200101907effffffffffffffffffffffffffffffffffffffffffffffffffffffffffffff1916908160001a905350600a856129d891906146f0565b9450612956565b8093505050505b919050565b60006129f7600b612d2a565b905090565b612a06600b612d38565b612a108282612d4e565b60016010600083815260200190815260200160002060006101000a81548160ff0219169083151502179055506011819080600181540180825580915050600190039060005260206000200160009091909190915055807fea003ee8da0ffa6fea72e4d1925044d0497f1b56b14ac9dd17a77967c92e830583604051612a95919061409f565b60405180910390a25050565b60007f80ac58cd000000000000000000000000000000000000000000000000000000007bffffffffffffffffffffffffffffffffffffffffffffffffffffffff1916827bffffffffffffffffffffffffffffffffffffffffffffffffffffffff19161480612b6c57507f5b5e139f000000000000000000000000000000000000000000000000000000007bffffffffffffffffffffffffffffffffffffffffffffffffffffffff1916827bffffffffffffffffffffffffffffffffffffffffffffffffffffffff1916145b80612b7c5750612b7b82612d6c565b5b9050919050565b612b8e838383612dd6565b505050565b6000612bb48473ffffffffffffffffffffffffffffffffffffffff16612e70565b15612d1d578373ffffffffffffffffffffffffffffffffffffffff1663150b7a02612bdd6120ed565b8786866040518563ffffffff1660e01b8152600401612bff94939291906140ba565b602060405180830381600087803b158015612c1957600080fd5b505af1925050508015612c4a57506040513d601f19601f82011682018060405250810190612c4791906139b6565b60015b612ccd573d8060008114612c7a576040519150601f19603f3d011682016040523d82523d6000602084013e612c7f565b606091505b50600081511415612cc5576040517f08c379a0000000000000000000000000000000000000000000000000000000008152600401612cbc906141c5565b60405180910390fd5b805181602001fd5b63150b7a0260e01b7bffffffffffffffffffffffffffffffffffffffffffffffffffffffff1916817bffffffffffffffffffffffffffffffffffffffffffffffffffffffff191614915050612d22565b600190505b949350505050565b600081600001549050919050565b6001816000016000828254019250508190555050565b612d68828260405180602001604052806000815250612e83565b5050565b60007f01ffc9a7000000000000000000000000000000000000000000000000000000007bffffffffffffffffffffffffffffffffffffffffffffffffffffffff1916827bffffffffffffffffffffffffffffffffffffffffffffffffffffffff1916149050919050565b612de1838383612ede565b612de9611492565b73ffffffffffffffffffffffffffffffffffffffff16612e076120ed565b73ffffffffffffffffffffffffffffffffffffffff1614612e6b57612e2a611010565b15612e6a576040517f08c379a0000000000000000000000000000000000000000000000000000000008152600401612e6190614165565b60405180910390fd5b5b505050565b600080823b905060008111915050919050565b612e8d8383612ff2565b612e9a6000848484612b93565b612ed9576040517f08c379a0000000000000000000000000000000000000000000000000000000008152600401612ed0906141c5565b60405180910390fd5b505050565b612ee98383836131c0565b600073ffffffffffffffffffffffffffffffffffffffff168373ffffffffffffffffffffffffffffffffffffffff161415612f2c57612f27816131c5565b612f6b565b8173ffffffffffffffffffffffffffffffffffffffff168373ffffffffffffffffffffffffffffffffffffffff1614612f6a57612f69838261320e565b5b5b600073ffffffffffffffffffffffffffffffffffffffff168273ffffffffffffffffffffffffffffffffffffffff161415612fae57612fa98161337b565b612fed565b8273ffffffffffffffffffffffffffffffffffffffff168273ffffffffffffffffffffffffffffffffffffffff1614612fec57612feb828261344c565b5b5b505050565b600073ffffffffffffffffffffffffffffffffffffffff168273ffffffffffffffffffffffffffffffffffffffff161415613062576040517f08c379a000000000000000000000000000000000000000000000000000000000815260040161305990614385565b60405180910390fd5b61306b81612081565b156130ab576040517f08c379a00000000000000000000000000000000000000000000000000000000081526004016130a290614265565b60405180910390fd5b6130b760008383612b83565b6001600360008473ffffffffffffffffffffffffffffffffffffffff1673ffffffffffffffffffffffffffffffffffffffff1681526020019081526020016000206000828254613107919061469a565b92505081905550816002600083815260200190815260200160002060006101000a81548173ffffffffffffffffffffffffffffffffffffffff021916908373ffffffffffffffffffffffffffffffffffffffff160217905550808273ffffffffffffffffffffffffffffffffffffffff16600073ffffffffffffffffffffffffffffffffffffffff167fddf252ad1be2c89b69c2b068fc378daa952ba7f163c4a11628f55a4df523b3ef60405160405180910390a45050565b505050565b6008805490506009600083815260200190815260200160002081905550600881908060018154018082558091505060019003906000526020600020016000909190919091505550565b6000600161321b846110d9565b613225919061477b565b905060006007600084815260200190815260200160002054905081811461330a576000600660008673ffffffffffffffffffffffffffffffffffffffff1673ffffffffffffffffffffffffffffffffffffffff168152602001908152602001600020600084815260200190815260200160002054905080600660008773ffffffffffffffffffffffffffffffffffffffff1673ffffffffffffffffffffffffffffffffffffffff168152602001908152602001600020600084815260200190815260200160002081905550816007600083815260200190815260200160002081905550505b6007600084815260200190815260200160002060009055600660008573ffffffffffffffffffffffffffffffffffffffff1673ffffffffffffffffffffffffffffffffffffffff16815260200190815260200160002060008381526020019081526020016000206000905550505050565b6000600160088054905061338f919061477b565b90506000600960008481526020019081526020016000205490506000600883815481106133bf576133be614a46565b5b9060005260206000200154905080600883815481106133e1576133e0614a46565b5b9060005260206000200181905550816009600083815260200190815260200160002081905550600960008581526020019081526020016000206000905560088054806134305761342f614a17565b5b6001900381819060005260206000200160009055905550505050565b6000613457836110d9565b905081600660008573ffffffffffffffffffffffffffffffffffffffff1673ffffffffffffffffffffffffffffffffffffffff168152602001908152602001600020600083815260200190815260200160002081905550806007600084815260200190815260200160002081905550505050565b8280546134d7906148ad565b90600052602060002090601f0160209004810192826134f95760008555613540565b82601f1061351257805160ff1916838001178555613540565b82800160010185558215613540579182015b8281111561353f578251825591602001919060010190613524565b5b50905061354d9190613551565b5090565b5b8082111561356a576000816000905550600101613552565b5090565b600061358161357c84614585565b614560565b905080838252602082019050828560208602820111156135a4576135a3614aa9565b5b60005b858110156135d457816135ba8882613755565b8452602084019350602083019250506001810190506135a7565b5050509392505050565b60006135f16135ec846145b1565b614560565b90508281526020810184848401111561360d5761360c614aae565b5b61361884828561486b565b509392505050565b600061363361362e846145e2565b614560565b90508281526020810184848401111561364f5761364e614aae565b5b61365a84828561486b565b509392505050565b6000813590506136718161535b565b92915050565b60008135905061368681615372565b92915050565b600082601f8301126136a1576136a0614aa4565b5b81356136b184826020860161356e565b91505092915050565b6000813590506136c981615389565b92915050565b6000813590506136de816153a0565b92915050565b6000815190506136f3816153a0565b92915050565b600082601f83011261370e5761370d614aa4565b5b813561371e8482602086016135de565b91505092915050565b600082601f83011261373c5761373b614aa4565b5b813561374c848260208601613620565b91505092915050565b600081359050613764816153b7565b92915050565b6000602082840312156137805761377f614ab8565b5b600061378e84828501613662565b91505092915050565b600080604083850312156137ae576137ad614ab8565b5b60006137bc85828601613677565b925050602083013567ffffffffffffffff8111156137dd576137dc614ab3565b5b6137e98582860161368c565b9150509250929050565b6000806040838503121561380a57613809614ab8565b5b600061381885828601613662565b925050602061382985828601613662565b9150509250929050565b60008060006060848603121561384c5761384b614ab8565b5b600061385a86828701613662565b935050602061386b86828701613662565b925050604061387c86828701613755565b9150509250925092565b600080600080608085870312156138a05761389f614ab8565b5b60006138ae87828801613662565b94505060206138bf87828801613662565b93505060406138d087828801613755565b925050606085013567ffffffffffffffff8111156138f1576138f0614ab3565b5b6138fd878288016136f9565b91505092959194509250565b600080604083850312156139205761391f614ab8565b5b600061392e85828601613662565b925050602061393f858286016136ba565b9150509250929050565b600080604083850312156139605761395f614ab8565b5b600061396e85828601613662565b925050602061397f85828601613755565b9150509250929050565b60006020828403121561399f5761399e614ab8565b5b60006139ad848285016136cf565b91505092915050565b6000602082840312156139cc576139cb614ab8565b5b60006139da848285016136e4565b91505092915050565b6000602082840312156139f9576139f8614ab8565b5b600082013567ffffffffffffffff811115613a1757613a16614ab3565b5b613a2384828501613727565b91505092915050565b600060208284031215613a4257613a41614ab8565b5b6000613a5084828501613755565b91505092915050565b6000613a658383614022565b60208301905092915050565b613a7a81614835565b82525050565b613a89816147af565b82525050565b6000613a9a82614623565b613aa48185614651565b9350613aaf83614613565b8060005b83811015613ae0578151613ac78882613a59565b9750613ad283614644565b925050600181019050613ab3565b5085935050505092915050565b613af6816147d3565b82525050565b6000613b078261462e565b613b118185614662565b9350613b2181856020860161487a565b613b2a81614abd565b840191505092915050565b6000613b4082614639565b613b4a818561467e565b9350613b5a81856020860161487a565b613b6381614abd565b840191505092915050565b6000613b7982614639565b613b83818561468f565b9350613b9381856020860161487a565b80840191505092915050565b6000613bac602b8361467e565b9150613bb782614ace565b604082019050919050565b6000613bcf602c8361467e565b9150613bda82614b1d565b604082019050919050565b6000613bf2602b8361467e565b9150613bfd82614b6c565b604082019050919050565b6000613c1560328361467e565b9150613c2082614bbb565b604082019050919050565b6000613c3860348361467e565b9150613c4382614c0a565b604082019050919050565b6000613c5b60108361467e565b9150613c6682614c59565b602082019050919050565b6000613c7e60328361467e565b9150613c8982614c82565b604082019050919050565b6000613ca160268361467e565b9150613cac82614cd1565b604082019050919050565b6000613cc4601c8361467e565b9150613ccf82614d20565b602082019050919050565b6000613ce7601a8361467e565b9150613cf282614d49565b602082019050919050565b6000613d0a60248361467e565b9150613d1582614d72565b604082019050919050565b6000613d2d60198361467e565b9150613d3882614dc1565b602082019050919050565b6000613d50603d8361467e565b9150613d5b82614dea565b604082019050919050565b6000613d73602c8361467e565b9150613d7e82614e39565b604082019050919050565b6000613d9660388361467e565b9150613da182614e88565b604082019050919050565b6000613db9602a8361467e565b9150613dc482614ed7565b604082019050919050565b6000613ddc60298361467e565b9150613de782614f26565b604082019050919050565b6000613dff60208361467e565b9150613e0a82614f75565b602082019050919050565b6000613e22602c8361467e565b9150613e2d82614f9e565b604082019050919050565b6000613e4560058361468f565b9150613e5082614fed565b600582019050919050565b6000613e6860208361467e565b9150613e7382615016565b602082019050919050565b6000613e8b60298361467e565b9150613e968261503f565b604082019050919050565b6000613eae602f8361467e565b9150613eb98261508e565b604082019050919050565b6000613ed1603a8361467e565b9150613edc826150dd565b604082019050919050565b6000613ef460208361467e565b9150613eff8261512c565b602082019050919050565b6000613f1760218361467e565b9150613f2282615155565b604082019050919050565b6000613f3a603e8361467e565b9150613f45826151a4565b604082019050919050565b6000613f5d600083614673565b9150613f68826151f3565b600082019050919050565b6000613f80602f8361467e565b9150613f8b826151f6565b604082019050919050565b6000613fa360318361467e565b9150613fae82615245565b604082019050919050565b6000613fc6602c8361467e565b9150613fd182615294565b604082019050919050565b6000613fe960308361467e565b9150613ff4826152e3565b604082019050919050565b600061400c600f8361467e565b915061401782615332565b602082019050919050565b61402b8161482b565b82525050565b61403a8161482b565b82525050565b600061404c8285613b6e565b91506140588284613b6e565b915061406382613e38565b91508190509392505050565b600061407a82613f50565b9150819050919050565b60006020820190506140996000830184613a80565b92915050565b60006020820190506140b46000830184613a71565b92915050565b60006080820190506140cf6000830187613a80565b6140dc6020830186613a80565b6140e96040830185614031565b81810360608301526140fb8184613afc565b905095945050505050565b600060208201905081810360008301526141208184613a8f565b905092915050565b600060208201905061413d6000830184613aed565b92915050565b6000602082019050818103600083015261415d8184613b35565b905092915050565b6000602082019050818103600083015261417e81613b9f565b9050919050565b6000602082019050818103600083015261419e81613bc2565b9050919050565b600060208201905081810360008301526141be81613be5565b9050919050565b600060208201905081810360008301526141de81613c08565b9050919050565b600060208201905081810360008301526141fe81613c2b565b9050919050565b6000602082019050818103600083015261421e81613c4e565b9050919050565b6000602082019050818103600083015261423e81613c71565b9050919050565b6000602082019050818103600083015261425e81613c94565b9050919050565b6000602082019050818103600083015261427e81613cb7565b9050919050565b6000602082019050818103600083015261429e81613cda565b9050919050565b600060208201905081810360008301526142be81613cfd565b9050919050565b600060208201905081810360008301526142de81613d20565b9050919050565b600060208201905081810360008301526142fe81613d43565b9050919050565b6000602082019050818103600083015261431e81613d66565b9050919050565b6000602082019050818103600083015261433e81613d89565b9050919050565b6000602082019050818103600083015261435e81613dac565b9050919050565b6000602082019050818103600083015261437e81613dcf565b9050919050565b6000602082019050818103600083015261439e81613df2565b9050919050565b600060208201905081810360008301526143be81613e15565b9050919050565b600060208201905081810360008301526143de81613e5b565b9050919050565b600060208201905081810360008301526143fe81613e7e565b9050919050565b6000602082019050818103600083015261441e81613ea1565b9050919050565b6000602082019050818103600083015261443e81613ec4565b9050919050565b6000602082019050818103600083015261445e81613ee7565b9050919050565b6000602082019050818103600083015261447e81613f0a565b9050919050565b6000602082019050818103600083015261449e81613f2d565b9050919050565b600060208201905081810360008301526144be81613f73565b9050919050565b600060208201905081810360008301526144de81613f96565b9050919050565b600060208201905081810360008301526144fe81613fb9565b9050919050565b6000602082019050818103600083015261451e81613fdc565b9050919050565b6000602082019050818103600083015261453e81613fff565b9050919050565b600060208201905061455a6000830184614031565b92915050565b600061456a61457b565b905061457682826148df565b919050565b6000604051905090565b600067ffffffffffffffff8211156145a05761459f614a75565b5b602082029050602081019050919050565b600067ffffffffffffffff8211156145cc576145cb614a75565b5b6145d582614abd565b9050602081019050919050565b600067ffffffffffffffff8211156145fd576145fc614a75565b5b61460682614abd565b9050602081019050919050565b6000819050602082019050919050565b600081519050919050565b600081519050919050565b600081519050919050565b6000602082019050919050565b600082825260208201905092915050565b600082825260208201905092915050565b600081905092915050565b600082825260208201905092915050565b600081905092915050565b60006146a58261482b565b91506146b08361482b565b9250827fffffffffffffffffffffffffffffffffffffffffffffffffffffffffffffffff038211156146e5576146e461498a565b5b828201905092915050565b60006146fb8261482b565b91506147068361482b565b925082614716576147156149b9565b5b828204905092915050565b600061472c8261482b565b91506147378361482b565b9250817fffffffffffffffffffffffffffffffffffffffffffffffffffffffffffffffff04831182151516156147705761476f61498a565b5b828202905092915050565b60006147868261482b565b91506147918361482b565b9250828210156147a4576147a361498a565b5b828203905092915050565b60006147ba8261480b565b9050919050565b60006147cc8261480b565b9050919050565b60008115159050919050565b60007fffffffff0000000000000000000000000000000000000000000000000000000082169050919050565b600073ffffffffffffffffffffffffffffffffffffffff82169050919050565b6000819050919050565b600061484082614847565b9050919050565b600061485282614859565b9050919050565b60006148648261480b565b9050919050565b82818337600083830152505050565b60005b8381101561489857808201518184015260208101905061487d565b838111156148a7576000848401525b50505050565b600060028204905060018216806148c557607f821691505b602082108114156148d9576148d86149e8565b5b50919050565b6148e882614abd565b810181811067ffffffffffffffff8211171561490757614906614a75565b5b80604052505050565b600061491b8261482b565b91507fffffffffffffffffffffffffffffffffffffffffffffffffffffffffffffffff82141561494e5761494d61498a565b5b600182019050919050565b60006149648261482b565b915061496f8361482b565b92508261497f5761497e6149b9565b5b828206905092915050565b7f4e487b7100000000000000000000000000000000000000000000000000000000600052601160045260246000fd5b7f4e487b7100000000000000000000000000000000000000000000000000000000600052601260045260246000fd5b7f4e487b7100000000000000000000000000000000000000000000000000000000600052602260045260246000fd5b7f4e487b7100000000000000000000000000000000000000000000000000000000600052603160045260246000fd5b7f4e487b7100000000000000000000000000000000000000000000000000000000600052603260045260246000fd5b7f4e487b7100000000000000000000000000000000000000000000000000000000600052604160045260246000fd5b600080fd5b600080fd5b600080fd5b600080fd5b600080fd5b6000601f19601f8301169050919050565b7f4552433732315061757361626c653a20746f6b656e207472616e73666572207760008201527f68696c6520706175736564000000000000000000000000000000000000000000602082015250565b7f50524553414c453a204f6e6c79207265676973746572656420637573746f6d6560008201527f72732063616e206d696e74210000000000000000000000000000000000000000602082015250565b7f455243373231456e756d657261626c653a206f776e657220696e646578206f7560008201527f74206f6620626f756e6473000000000000000000000000000000000000000000602082015250565b7f4552433732313a207472616e7366657220746f206e6f6e20455243373231526560008201527f63656976657220696d706c656d656e7465720000000000000000000000000000602082015250565b7f4d494e543a20506c6561736520676f20746f20746865204f70656e736561207460008201527f6f20627579204361707461696e2043616e64792e000000000000000000000000602082015250565b7f5041555341424c453a2050617573656400000000000000000000000000000000600082015250565b7f4d494e543a2043757272656e7420636f756e742065786365656473206d61786960008201527f6d756d20656c656d656e7420636f756e742e0000000000000000000000000000602082015250565b7f4f776e61626c653a206e6577206f776e657220697320746865207a65726f206160008201527f6464726573730000000000000000000000000000000000000000000000000000602082015250565b7f4552433732313a20746f6b656e20616c7265616479206d696e74656400000000600082015250565b7f57495448445241573a205472616e73666572206661696c65642e000000000000600082015250565b7f4552433732313a207472616e7366657220746f20746865207a65726f2061646460008201527f7265737300000000000000000000000000000000000000000000000000000000602082015250565b7f4552433732313a20617070726f766520746f2063616c6c657200000000000000600082015250565b7f4d494e543a2043757272656e742076616c75652069732062656c6f772074686560008201527f2073616c6573207072696365206f66204361707461696e2043616e6479000000602082015250565b7f4552433732313a206f70657261746f7220717565727920666f72206e6f6e657860008201527f697374656e7420746f6b656e0000000000000000000000000000000000000000602082015250565b7f4552433732313a20617070726f76652063616c6c6572206973206e6f74206f7760008201527f6e6572206e6f7220617070726f76656420666f7220616c6c0000000000000000602082015250565b7f4552433732313a2062616c616e636520717565727920666f7220746865207a6560008201527f726f206164647265737300000000000000000000000000000000000000000000602082015250565b7f4552433732313a206f776e657220717565727920666f72206e6f6e657869737460008201527f656e7420746f6b656e0000000000000000000000000000000000000000000000602082015250565b7f4552433732313a206d696e7420746f20746865207a65726f2061646472657373600082015250565b7f4552433732313a20617070726f76656420717565727920666f72206e6f6e657860008201527f697374656e7420746f6b656e0000000000000000000000000000000000000000602082015250565b7f2e6a736f6e000000000000000000000000000000000000000000000000000000600082015250565b7f4f776e61626c653a2063616c6c6572206973206e6f7420746865206f776e6572600082015250565b7f4552433732313a207472616e73666572206f6620746f6b656e2074686174206960008201527f73206e6f74206f776e0000000000000000000000000000000000000000000000602082015250565b7f4552433732314d657461646174613a2055524920717565727920666f72206e6f60008201527f6e6578697374656e7420746f6b656e0000000000000000000000000000000000602082015250565b7f4d494e543a2054686f73652069647320616c726561647920686176652062656560008201527f6e207573656420666f72206f7468657220637573746f6d657273000000000000602082015250565b7f57495448445241573a204e6f2062616c616e636520696e20636f6e7472616374600082015250565b7f4552433732313a20617070726f76616c20746f2063757272656e74206f776e6560008201527f7200000000000000000000000000000000000000000000000000000000000000602082015250565b7f53414c45533a20506c656173652077616974206120626974206c6f6e6765722060008201527f6265666f726520627579696e67204361707461696e2043616e6479203b290000602082015250565b50565b7f4d494e543a2043757272656e7420636f756e742065786365656473206d61786960008201527f6d756d206d696e7420636f756e742e0000000000000000000000000000000000602082015250565b7f4552433732313a207472616e736665722063616c6c6572206973206e6f74206f60008201527f776e6572206e6f7220617070726f766564000000000000000000000000000000602082015250565b7f455243373231456e756d657261626c653a20676c6f62616c20696e646578206f60008201527f7574206f6620626f756e64730000000000000000000000000000000000000000602082015250565b7f4552433732314275726e61626c653a2063616c6c6572206973206e6f74206f7760008201527f6e6572206e6f7220617070726f76656400000000000000000000000000000000602082015250565b7f53414c45533a2053616c6520656e640000000000000000000000000000000000600082015250565b615364816147af565b811461536f57600080fd5b50565b61537b816147c1565b811461538657600080fd5b50565b615392816147d3565b811461539d57600080fd5b50565b6153a9816147df565b81146153b457600080fd5b50565b6153c08161482b565b81146153cb57600080fd5b5056fea2646970667358221220571d37e2e960ce15e74646d7cd3ae9ecde48123386603a0b93179183727e6d5764736f6c63430008070033",
  "immutableReferences": {},
  "source": "// SPDX-License-Identifier: MIT\r\n\r\npragma solidity ^0.8.7;\r\n\r\nimport \"@openzeppelin/contracts/token/ERC721/ERC721.sol\";\r\nimport \"@openzeppelin/contracts/token/ERC721/extensions/ERC721Enumerable.sol\";\r\nimport \"@openzeppelin/contracts/token/ERC721/extensions/ERC721Burnable.sol\";\r\nimport \"@openzeppelin/contracts/access/Ownable.sol\";\r\nimport \"@openzeppelin/contracts/utils/math/SafeMath.sol\";\r\nimport \"@openzeppelin/contracts/utils/Counters.sol\";\r\nimport \"./ERC721Pausable.sol\";\r\n\r\ncontract CaptainCandy is ERC721Enumerable, Ownable, ERC721Burnable, ERC721Pausable {\r\n\r\n    using SafeMath for uint256;\r\n    using Counters for Counters.Counter;\r\n\r\n    Counters.Counter private _tokenIdTracker;\r\n\r\n    bool public SALE_OPEN = false;\r\n\r\n    uint256 private constant PRICE = 2 * 10**2 * 10**18; // 200 Matic Captain Candy\r\n    uint256 private constant PRICE_PRESALE = 15 * 10 * 10**18; // 150 Matic Per Captain Candy\r\n    uint256 private constant PRICE_PREMINT = 0; // Free Mint\r\n\r\n    uint256 private constant MAX_ELEMENTS = 10000; // 10,000 Captain Candies for Entire Collection.\r\n    uint256 private constant MAX_ELEMENTS_PRESALE = 1000; // 1,000 Captain Candies for Pre-Sale.\r\n    uint256 private constant MAX_ELEMENTS_PREMINT = 100; // 100 Captain Candies for GiveAway.\r\n\r\n    uint256 private constant MAX_MINT = 20; // Upper Limit per Mint is 20\r\n    uint256 private constant MAX_MINT_PRESALE = 5; // Upper Limit per Mint is 5\r\n    uint256 private constant MAX_MINT_PREMINT = 100; // Upper Limit per Mint is 28\r\n\r\n    uint256 private _price;\r\n    uint256 private _maxElements;\r\n    uint256 private _maxMint;\r\n\r\n    mapping(uint256 => bool) private _isOccupiedId;\r\n    uint256[] private _occupiedList;\r\n\r\n    mapping(address => bool) public _whitelist;\r\n    bool private _isPresale;\r\n\r\n    string private baseTokenURI;\r\n\r\n    address private developerAddress = 0xDEA5e36DC33A3aed5CA275E463eDd283F680D1c6;\r\n    address private designerAddress = 0xB1A37DE9227eB305eCAD81A6C0a10eBE36C50653;\r\n    address private ownerAddress = 0xe3f91D76F7C24048d080d392e0587439F26BaE71;\r\n\r\n    event OnePieceCreated(address to, uint256 indexed id);\r\n\r\n    modifier saleIsOpen {\r\n        if (_msgSender() != owner()) {\r\n            require(SALE_OPEN == true, \"SALES: Please wait a bit longer before buying Captain Candy ;)\");\r\n        }\r\n        require(_totalSupply() <= MAX_ELEMENTS, \"SALES: Sale end\");\r\n\r\n        if (_msgSender() != owner()) {\r\n            require(!paused(), \"PAUSABLE: Paused\");\r\n        }\r\n        _;\r\n    }\r\n\r\n    constructor (string memory baseURI) ERC721(\"Captain Candy\", \"CC\") {\r\n        setBaseURI(baseURI);\r\n\r\n        _price = PRICE_PREMINT;\r\n        _maxElements = MAX_ELEMENTS_PREMINT;\r\n        _maxMint = MAX_MINT_PREMINT;\r\n    }\r\n\r\n    function mint(address payable _to, uint256[] memory _ids) public payable saleIsOpen {\r\n        uint256 total = _totalSupply();\r\n\r\n        if (_isPresale == true) {\r\n            require(_whitelist[_to] == true, \"PRESALE: Only registered customers can mint!\");\r\n        }\r\n\r\n        require(total + _ids.length <= _maxElements, \"MINT: Current count exceeds maximum element count.\");\r\n        require(total <= _maxElements, \"MINT: Please go to the Opensea to buy Captain Candy.\");\r\n        require(_ids.length <= _maxMint, \"MINT: Current count exceeds maximum mint count.\");\r\n\r\n        if (_to != owner()) {\r\n            require(msg.value >= price(_ids.length), \"MINT: Current value is below the sales price of Captain Candy\");\r\n        }\r\n\r\n        for (uint256 i = 0; i < _ids.length; i++) {\r\n            require(_isOccupiedId[_ids[i]] == false, \"MINT: Those ids already have been used for other customers\");\r\n        }\r\n\r\n        for (uint256 i = 0; i < _ids.length; i++) {\r\n            _mintAnElement(_to, _ids[i]);\r\n        }\r\n    }\r\n\r\n    function _mintAnElement(address payable _to, uint256 _id) private {\r\n        _tokenIdTracker.increment();\r\n        _safeMint(_to, _id);\r\n        _isOccupiedId[_id] = true;\r\n        _occupiedList.push(_id);\r\n\r\n        emit OnePieceCreated(_to, _id);\r\n    }\r\n\r\n    function startPreSale() public onlyOwner {\r\n        _isPresale = true;\r\n\r\n        SALE_OPEN = true;\r\n\r\n        _price = PRICE_PRESALE;\r\n        _maxElements = MAX_ELEMENTS_PRESALE + MAX_ELEMENTS_PREMINT;\r\n        _maxMint = MAX_MINT_PRESALE;\r\n    }\r\n\r\n    function startPublicSale() public onlyOwner {\r\n        _isPresale = false;\r\n\r\n        SALE_OPEN = true;\r\n\r\n        _price = PRICE;\r\n        _maxElements = MAX_ELEMENTS;\r\n        _maxMint = MAX_MINT;\r\n    }\r\n\r\n    function flipSaleState() public onlyOwner {\r\n        SALE_OPEN = !SALE_OPEN;\r\n    }\r\n\r\n    function addToWhitelist(address attender) public onlyOwner {\r\n        _whitelist[attender] = true;\r\n    }\r\n\r\n    function removeFromWhitelist(address attender) public onlyOwner {\r\n        _whitelist[attender] = false;\r\n    }\r\n\r\n    function setBaseURI(string memory baseURI) public onlyOwner {\r\n        baseTokenURI = baseURI;\r\n    }\r\n\r\n    function _baseURI() internal view virtual override returns (string memory) {\r\n        return baseTokenURI;\r\n    }\r\n\r\n    function price(uint256 _count) public view returns (uint256) {\r\n        return _price.mul(_count);\r\n    }\r\n\r\n    function _totalSupply() internal view returns (uint) {\r\n        return _tokenIdTracker.current();\r\n    }\r\n\r\n    function occupiedList() public view returns (uint256[] memory) {\r\n        return _occupiedList;\r\n    }\r\n\r\n    function maxMint() public view returns (uint256) {\r\n        return _maxMint;\r\n    }\r\n\r\n    function maxSales() public view returns (uint256) {\r\n        return _maxElements;\r\n    }\r\n\r\n    function maxSupply() public pure returns (uint256) {\r\n        return MAX_ELEMENTS;\r\n    }\r\n\r\n    function raised() public view returns (uint256) {\r\n        return address(this).balance;\r\n    }\r\n\r\n    function getTokenIdsOfWallet(address _owner) external view returns (uint256[] memory) {\r\n        uint256 tokenCount = balanceOf(_owner);\r\n\r\n        uint256[] memory tokensId = new uint256[](tokenCount);\r\n\r\n        for (uint256 i = 0; i < tokenCount; i++) {\r\n            tokensId[i] = tokenOfOwnerByIndex(_owner, i);\r\n        }\r\n\r\n        return tokensId;\r\n    }\r\n\r\n    function withdrawAll() public payable onlyOwner {\r\n        uint256 balance = address(this).balance;\r\n        require(balance > 0, \"WITHDRAW: No balance in contract\");\r\n\r\n        // Withdraw 4% to developer Address.\r\n        _widthdraw(developerAddress, balance.mul(4).div(10**2));\r\n        // Withdraw 3.5% to designer Address.\r\n        _widthdraw(designerAddress, balance.mul(35).div(10**3));\r\n        // Withdraw 92.5% to owner Address.\r\n        _widthdraw(ownerAddress, address(this).balance);\r\n    }\r\n\r\n    function _widthdraw(address _address, uint256 _amount) private {\r\n        (bool success, ) = _address.call{value: _amount}(\"\");\r\n        require(success, \"WITHDRAW: Transfer failed.\");\r\n    }\r\n\r\n    function _beforeTokenTransfer(\r\n        address from,\r\n        address to,\r\n        uint256 tokenId\r\n    ) internal virtual override(ERC721, ERC721Enumerable, ERC721Pausable) {\r\n        super._beforeTokenTransfer(from, to, tokenId);\r\n    }\r\n\r\n    function supportsInterface(bytes4 interfaceId) public view virtual override(ERC721, ERC721Enumerable) returns (bool) {\r\n        return super.supportsInterface(interfaceId);\r\n    }\r\n}",
  "sourcePath": "F:\\Cory_Career\\Eugene\\Captain_Candy\\captain-candy-minting-website\\contracts\\CaptainCandy.sol",
  "compiler": {
    "name": "solc",
    "version": "0.8.7+commit.e28d00a7.Emscripten.clang"
  },
  "schemaVersion": "3.4.3",
  "updatedAt": "2021-11-05T16:45:47.413Z",
  "networkType": "ethereum",
  "devdoc": {
    "kind": "dev",
    "methods": {
      "approve(address,uint256)": {
        "details": "See {IERC721-approve}."
      },
      "balanceOf(address)": {
        "details": "See {IERC721-balanceOf}."
      },
      "burn(uint256)": {
        "details": "Burns `tokenId`. See {ERC721-_burn}. Requirements: - The caller must own `tokenId` or be an approved operator."
      },
      "getApproved(uint256)": {
        "details": "See {IERC721-getApproved}."
      },
      "isApprovedForAll(address,address)": {
        "details": "See {IERC721-isApprovedForAll}."
      },
      "name()": {
        "details": "See {IERC721Metadata-name}."
      },
      "owner()": {
        "details": "Returns the address of the current owner."
      },
      "ownerOf(uint256)": {
        "details": "See {IERC721-ownerOf}."
      },
      "paused()": {
        "details": "Returns true if the contract is paused, and false otherwise."
      },
      "renounceOwnership()": {
        "details": "Leaves the contract without owner. It will not be possible to call `onlyOwner` functions anymore. Can only be called by the current owner. NOTE: Renouncing ownership will leave the contract without an owner, thereby removing any functionality that is only available to the owner."
      },
      "safeTransferFrom(address,address,uint256)": {
        "details": "See {IERC721-safeTransferFrom}."
      },
      "safeTransferFrom(address,address,uint256,bytes)": {
        "details": "See {IERC721-safeTransferFrom}."
      },
      "setApprovalForAll(address,bool)": {
        "details": "See {IERC721-setApprovalForAll}."
      },
      "symbol()": {
        "details": "See {IERC721Metadata-symbol}."
      },
      "tokenByIndex(uint256)": {
        "details": "See {IERC721Enumerable-tokenByIndex}."
      },
      "tokenOfOwnerByIndex(address,uint256)": {
        "details": "See {IERC721Enumerable-tokenOfOwnerByIndex}."
      },
      "tokenURI(uint256)": {
        "details": "See {IERC721Metadata-tokenURI}."
      },
      "totalSupply()": {
        "details": "See {IERC721Enumerable-totalSupply}."
      },
      "transferFrom(address,address,uint256)": {
        "details": "See {IERC721-transferFrom}."
      },
      "transferOwnership(address)": {
        "details": "Transfers ownership of the contract to a new account (`newOwner`). Can only be called by the current owner."
      }
    },
    "version": 1
  },
  "userdoc": {
    "kind": "user",
    "methods": {},
    "version": 1
  }
}